:02000002D0002C
:1040000000400D00E06F0D00000006000C000501EF
:084010000401DB0700000000C1
:044018006C6D0D00BE
:1040200009480A49884208B505D0094A824202D0A7
:10403000121A02F03BFE0748074A0021121A02F04A
:1040400043FE014808BD00BFB4E603204C6F0D00DD
:1040500020E7032020E70320F0E7032070B5074E98
:10406000074C00F0F7FFA41BA4080025A54200D1CF
:1040700070BD56F8043B98470135F7E7106F0D0007
:10408000346F0D0000F016B808B500F02FF8BDE849
:10409000084000F0A1BF00F00DBD00F00BBD00F026
:1040A00011BD0078B0FA80F0400970470123037019
:1040B00070470000014800F0A9B800BF28E70320BE
:1040C00038B5046805467CB16368013B63605BB941
:1040D000236820469B689847A368013BA3601BB9EF
:1040E00023682046DB689847284638BD10B51F4C2A
:1040F00090B04FF4FA6000F01BFF204600F0D8FAB1
:10410000062104A800F07BFE204600F0FFFA0621FD
:1041100008A800F074FE2046154C00F0F9FA0621BC
:104120000CA800F06CFE2378049A12498DF8003038
:1041300002A83C2301F0E6F803A8FFF7C1FF2378AB
:10414000089A0D498DF8003002A83C2301F0DAF8F6
:1041500003A8FFF7B5FF0CA800F0F4FD08A800F0D5
:10416000F1FD04A800F0EEFD10B010BD28E703201B
:1041700024E70320806D0D00856D0D00044B05487C
:1041800001221A7002210623162200F038B800BF5F
:1041900024E7032028E7032010B503682F2B0446EB
:1041A00004D9074A00210A2000F0E0FB23681F2BF6
:1041B00083BF03F01F03034823604FF0A04010BDEE
:1041C000AD470D000003005007B5019001A8FFF7AF
:1041D000E3FF019A01239340C0F8083503B05DF86E
:1041E00004FB07B5019001A8FFF7D6FF019BD0F8AB
:1041F0001005D84000F0010003B05DF804FB10B5D5
:10420000037201238171C271037410BD2DE9F04165
:1042100005461E4C8079DFF87880002101F0EEFC25
:10422000AE792378BFF35B8F13F0010F0AD12046DC
:10423000FFF737FF30B100F091FAC8F800002046D0
:10424000FFF734FFD8F8003036019F5D2378BFF3C5
:104250005B8FDB074FEA47170AD40C48FFF721FFB3
:1042600030B100F07BFAC8F800000848FFF71EFFE5
:10427000D8F8003033445B7803F01F0343EA0700AB
:10428000FFF7A2FF0023EB60BDE8F0813CE70320CD
:1042900040E70320000000002DE9F84310EE100A6B
:1042A0002DED028BB0EE608A01F0F6FF9FED280A3B
:1042B00088EE000A04460D4601F0FEFC20A3D3E977
:1042C00000232046294610EE106A02F03DF81EA396
:1042D000D3E90023804689462046294601F07EFE28
:1042E00002460B464046494602F058F9044630461D
:1042F0000D4601F0D1FF02460B462046294601F04B
:104300006DFE11A3D3E9002306460F4602F01CF808
:10431000324604460D463B4609A1D1E9000101F0B1
:104320005BFE02460B462046294602F037F902F0B2
:10433000C5FABDEC028B00EE100ABDE8F88300BFA1
:104340004C378941604531406666666666B66D40A9
:104350000000C8422DE9F04F044685B000F02EFA67
:10436000E368834284BF0023E360237C2BB9E368C6
:10437000C01AB0F5FA6FC0F060810025257400F016
:104380001DFAB04E25602571E060A7793378AE4DF7
:10439000BFF35B8F13F0010F09D13046FFF781FEA9
:1043A00028B100F0DBF928603046FFF77FFE2B686C
:1043B0003F0113F807803378BFF35B8FD9074FEACB
:1043C000481809D49F48FFF76CFE28B100F0C6F9E1
:1043D00028609C48FFF76AFE2B681F44787800F03D
:1043E0001F0040EA0800FFF7EFFEFA2000F0A0FDF2
:1043F000A079012101F002FCA7793378BFF35B8F2C
:10440000DA0709D48F48FFF74CFE28B100F0A6F96F
:1044100028608C48FFF74AFE2B683F01DB5D4FEABE
:1044200043183378BFF35B8FDB0709D48548FFF768
:1044300038FE28B100F092F928608248FFF736FE76
:104440002B681F4403A87B7803F01F0343EA08038B
:104450000393FFF7A1FE039A01239340C0F80C35A4
:10446000142000F065FD01F0B7F9A7793378BFF3A8
:104470005B8FD80709D47348FFF713FE28B100F00B
:104480006DF928606F48FFF711FE2B683F0113F8A4
:1044900007803378BFF35B8FD9074FEA481809D4F8
:1044A0006848FFF7FEFD28B100F058F9286065481C
:1044B000FFF7FCFD2B681F44787800F01F0040EAEE
:1044C0000800FFF781FE282000F070F9A079DFF8DE
:1044D0007481002101F092FB00270123BA4600936A
:1044E0004FF0000994F806B03378BFF35B8FDA071A
:1044F00009D44046FFF7D5FD28B100F02FF9286018
:104500004046FFF7D3FD2B684FEA0B1B13F80B3027
:104510005B0101933378BFF35B8FDB0709D440461F
:10452000FFF7BFFD28B100F019F928604046FFF7FA
:10453000BDFD2B685B4493F801B0019B0BF01F0B92
:104540004BEA030B5846FFF74CFE5846FFF749FE6F
:10455000009B834209D109F101095FFA89F9012021
:1045600000F024F9B9F1FF0FBCD194F806B033780C
:10457000BFF35B8FD80709D44046FFF792FD28B1FF
:1045800000F0ECF828604046FFF790FD2B684FEAFA
:104590000B1B13F80B305B0100933378BFF35B8F79
:1045A000D90709D44046FFF77CFD28B100F0D6F8C2
:1045B00028604046FFF77AFD2B685B4493F801B012
:1045C000009B0BF01F0B4BEA030B5846FFF709FE4D
:1045D0005846FFF706FEB9F1FF0FC3B2009318D09B
:1045E000032F11D9FA070FD44FEADA020AF1010AB0
:1045F000A35C5B00DBB2A354217A49453CBF43F086
:104600000103A3545FFA8AFA0137FFB2552F7FF4F2
:1046100067AF01F0E3F8BAF1270F10D9637820787B
:104620001844A3781844E37818442379C0B2C31A15
:104630005842584105B0BDE8F08F0120FAE700204C
:10464000F8E700BF3CE7032040E7032010B504462D
:10465000FFF780FE20B3E3790B2B1BD0153B012B1A
:104660001ED8A378DFED106A03F07F0207EE102A50
:10467000E27807EE902AB8EEC77AF8EEE77A1B06E2
:10468000E7EE267AB2EE047A87EE870A07D5B1EE16
:10469000400A04E0A37800EE103AB8EE400A10BDDC
:1046A0009FED020AFBE700BF000080430000C07FCF
:1046B000FFF7CCBF10B50446FFF74CFEF0B1E3792D
:1046C0000B2B15D0153B012B18D82378DFED0D6A85
:1046D00007EE103A637807EE903AB8EE477AF8EEB4
:1046E000E77AE7EE267AB2EE047A87EE870A10BD03
:1046F000237800EE103AB8EE400AF8E79FED020A80
:10470000F5E700BF000080430000C07FFFF7D2BF85
:1047100010B52DED028B0446FFF798FF2046B0EE52
:10472000408AFFF7C7FFF0EE400AB0EE480ABDEC42
:10473000028B2046BDE81040FFF7AEBD08B5024B26
:104740001B689B68019308BD6802030008B5024B13
:104750001B68DB68019308BD6802030008B5024BC3
:104760001B681B68019308BD2C02030008B5024BAF
:104770001B689B68019308BD2C02030008B5024B1F
:104780001B681B6A019308BD2C02030008B5024B8D
:104790001B685B6A019308BD2C02030008B5024B3D
:1047A0001B685B68019308BD1802030008B5024B43
:1047B0001B68DB68019308BD1802030008B5024BB3
:1047C0001B685B69019308BD1802030008B5024B22
:1047D0001B685B6C019308BD4802030008B5024BDF
:1047E0001B689B6C019308BD4802030008B5024B8F
:1047F0001B685B69019308BD6402030008B5024BA6
:104800001B681B68019308BD3C02030008B5024BFE
:104810001B68DB68019308BD3C02030008B5024B2E
:104820001B681B69019308BD3C02030008B5024BDD
:104830001B685B69019308BD3C02030008B5024B8D
:104840001B689B69019308BD3C02030008B5024B3D
:104850001B68DB69019308BD3C02030008B5024BED
:104860001B681B6A019308BD3C02030008B5024B9C
:104870001B689B6A019308BD3C02030008B5024B0C
:104880001B681B6A019308BD2802030008B5024B90
:104890001B685B6A019308BD2802030008B5024B40
:1048A0001B689B6A019308BD2802030008B5024BF0
:1048B0001B68DB6A019308BD2802030008B5024BA0
:1048C0001B681B6B019308BD2802030008B5024B4F
:1048D0001B685B6B019308BD2802030008B5024BFF
:1048E0001B681B6C019308BD2802030008B5024B2E
:1048F0001B68DB69019308BD3002030008B5024B59
:104900001B681B6A019308BD3002030008B5024B07
:104910001B681B68019308BD4C02030008B5024BDD
:104920001B681B69019308BD4C02030008B5024BCC
:104930001B685B69019308BD4C02030008B5024B7C
:104940001B689B69019308BD4C02030008B5024B2C
:104950001B68DB69019308BD4C02030008B5024BDC
:104960001B681B6A019308BD4C02030008B5024B8B
:104970001B685B6B019308BD6002030008B5024B26
:104980001B685B68019308BD2002030008B5024B59
:104990001B685B69019308BD2002030008B5024B48
:1049A0001B68DB6C019308BD2002030008B5024BB5
:1049B0001B685B6D019308BD2002030008B5034B23
:1049C0001B68D3F88830019308BD00002002030063
:1049D00008B5034B1B68D3F89430019308BD000061
:1049E0002002030008B5024B1B685B68019308BDF9
:1049F0004002030008B5024B1B689B68019308BD89
:104A00004002030008B5024B1B68DB68019308BD38
:104A10004002030008B5024B1B681B69019308BDE7
:104A20004002030008B5024B1B685B69019308BD97
:104A30004002030008B5024B1B689B69019308BD47
:104A40004002030008B5024B1B68DB69019308BDF7
:104A50004002030008B5024B1B681B6A019308BDA6
:104A60004002030008B5024B1B681B6B019308BD95
:104A70004002030008B5024B1B685B6B019308BD45
:104A80004002030008B5024B1B685B69019308BD37
:104A90004402030008B5024B1B681B6A019308BD62
:104AA0004402030008B5024B1B68DB6B019308BD91
:104AB0004402030008B5024B1B681B68019308BD44
:104AC0001C02030008B5024B1B685B68019308BD1C
:104AD0001C02030008B5024B1B689B68019308BDCC
:104AE0001C02030008B5024B1B68DB6A019308BD7A
:104AF0001C02030008B5024B1B681B6B019308BD29
:104B00001C02030008B5024B1B68DB6B019308BD58
:104B10001C02030008B5024B1B685B6C019308BDC7
:104B20001C020300002240681146FFF793BF0022D9
:104B300040681146FFF79EBF40680022FFF792BF12
:104B40004068002281F00101FFF77CBF002340682C
:104B50001A461946FFF76EBF002340681A461946E9
:104B6000FFF760BF002240681146FFF753BF0022E5
:104B700040681146FFF73EBF406800220221FFF760
:104B800041BF002340681A46FFF72CBF024B0322A7
:104B90005A60024A1A60704744E70320986D0D007E
:104BA00010B5044608462170FFF7A0FE002363609D
:104BB000204610BD10B50446006818B1FFF782FF0B
:104BC0000023236010BD10B50446FFF7F3FF204615
:104BD00010BD000010B5094B094C022200201A60DC
:104BE000084B2060A080A071A360FFF7C7FE20469D
:104BF000054A0649BDE8104001F052B858E70320C5
:104C00004CE703200000FFFF20E70320C74B0D0007
:104C100010B5044602F0A1F801382318204683425B
:104C200006D90278197800F8011B03F80129F6E784
:104C300010BD70B50C46911E2229054622D820468B
:104C40006DB1B5FBF2F602FB1655E9B2092D94BF22
:104C500030315731C9B200F8011B3546F0E7024642
:104C600023443021934202D902F8011BFAE71A1AB1
:104C7000834238BF0022002383542046FFF7C8FF39
:104C8000204670BD0020FCE72DE9F04757EC106B83
:104C900080460C4610EE100A00220023394601F02F
:104CA000C5FD28B107F100431F462D2304F8013B41
:104CB00000234FF001090A22D9B2884503D902FB2B
:104CC00009F90133F8E7484601F0D4FA32463B4689
:104CD00001F03AFB06460F4601F058FE05468A46AB
:104CE00001F0FCFA02460B463046394601F074F9F1
:104CF000134B002201F0AEFD10B101354AF1000A5C
:104D00004A462846D317514601F028FE012315468E
:104D100021460A22FFF78DFFB8F1000F0DD0204683
:104D200002F01BF82E23211823540A22434628465A
:104D30000131BDE8F047FFF77CBFBDE8F08700BF59
:104D40000000E03F10B504460068FFF7BBFE2046B8
:104D500010BD10B50446006808B1FFF7B3FE00238C
:104D6000C4E90133236010BD38B504460D46006820
:104D70000131FFF7AFFE10B1C4E90005012038BDD5
:104D800010B50368044623B143688B4201D3012068
:104D900010BD2046FFF7E8FF0028F9D0A368002BDC
:104DA000F5D122681370F2E737B50D46114601922E
:104DB0000446FFF7E5FF019A28B92046FFF7C9FF2F
:104DC000204603B030BDA2602946206801F06EFF86
:104DD0002268A3680021D154F2E713B5044659B103
:104DE0000846019101F0B9FF019902462046FFF7FC
:104DF000DBFF204602B010BDFFF7ABFFF9E730B58F
:104E0000044600238BB0C4E90033A360237310EE83
:104E1000100ACDB201F040FA41EC100B01A928466E
:104E2000FFF732FF01A92046FFF7D7FF20460BB05E
:104E300030BD10B50446006808B1FFF7CFFC20462E
:104E400010BD0B68036013B15A6801325A60704795
:104E500010B5064C002320462360FFF7B7FC204620
:104E6000034A0449BDE8104000F01ABF5CE7032084
:104E700020E70320334E0D00F8B506460D468F1887
:104E80000024BD420CD0336815F8011B9B683046E6
:104E90009847031E01DB1C44F3E7002C08BF1C46A7
:104EA0002046F8BD13B50446084659B1019101F0FA
:104EB00054FF23680199DB680246204602B0BDE832
:104EC0001040184702B010BD03689B68184730B502
:104ED0008BB000238DF82430012A98BF0A2209AC38
:104EE0000D46B1FBF2F101FB125303F0FF03092B56
:104EF00094BF30333733DBB2AA4204F8013DEFD917
:104F00002146FFF7CFFF0BB030BD0000014B024A36
:104F10001A60704760E70320C46D0D00024B1A68E9
:104F2000024B1A60704700BFB4E6032064E7032019
:104F30000021FFF72BBD10B58368044613B103228F
:104F400001469847204610BD10B50446FFF7F3FF11
:104F5000204610BD13B50B460246D0E900016C4651
:104F600084E8030093E8030082E8030094E8030068
:104F700083E8030002B010BD0348044A044900233B
:104F8000836000F08DBE00BF68E7032020E70320A8
:104F9000494F0D00014B1860704700BFBCE603206D
:104FA00008B50B4B43B100F0EDFB03681B69984754
:104FB000002801DDAFF30080064B43B100F064FC34
:104FC00003681B699847002801DDAFF3008008BD26
:104FD000000000000000000008B5FFF7E1FFFFF748
:104FE000EDFB014B186008BDD4E703200248034ADB
:104FF0000349121A01F05ABE00F4032004F40320FE
:10500000486F0D0007B5002300931A466FF0770133
:10501000FFF7DEFC03B05DF804FB000007B5438832
:105020000A2B08D0502B0BD1094B1B684BB103B096
:105030005DF804EB1847FFF7E5FF03B05DF804FBEC
:10504000002300931A466FF07701FFF7C1FCF4E7E5
:105050007CE7032038B5124C1248134D0021FFF7AE
:1050600059FD2368AB42114B0CBF012200221A707C
:1050700002D0FFF7BBFF2560FFF790FB044601F06D
:105080002BFE0B4B13B12046AFF3008000210848E4
:10509000FFF708FDBDE8384006480021FFF78EBC49
:1050A00000F40320954F0D001E1C279A78E703207B
:1050B000000000001D500D0070470020704710B523
:1050C0001021044600F0F1FD204610BD08B5FFF7A1
:1050D000F6FF08BD30B500224FF69C740260848054
:1050E0008D888C800C68858004600A6030BD10B5A6
:1050F00004460068FFF7E6FC204610BD38B5C468DA
:10510000F4B12378022B03D104F10C00FFF7EFFF79
:10511000656835B12846FFF70EFF1021284600F0DC
:10512000C4FDA56835B12846FFF705FF10212846C4
:1051300000F0BBFD20461421BDE8384000F0B5BDAD
:1051400038BD73B50E46044656F8043B00930D4631
:1051500001A83146FFF775FE019A009B626023604B
:1051600001A8002301930093FEF7AAFF3046FEF743
:10517000A7FF2846082100F098FD204602B070BD28
:10518000826810B50AB900F094FDBDE81040C3680C
:10519000184708B5006800F11001FFF7F1FF08BDDE
:1051A000826810B50AB900F084FDBDE81040C368FC
:1051B000184708B5006800F11001FFF7F1FF08BDBE
:1051C00038B500230446036010200D46FEF763FF48
:1051D00028B10123C0E90133024B0360C5602060A0
:1051E000204638BDEC6D0D0038B5002383608B6818
:1051F00004460D462BB102229847EB68E360AB688A
:10520000A360204638BD0000F0B589B00468684648
:10521000FFF760FF4FF00203D4E84F2F002A03D1BD
:10522000C4E8413F0029F7D125D104F10C056946B6
:105230002846FFF74FFFBFF35B8F01236370002009
:1052400004F10803BFF35B8F53E8006F43E80002EB
:10525000002AF9D1BFF35B8F6EB1FFF79FFB78B1E6
:1052600029463046FFF78CFF3046FFF764FE1021D9
:10527000304600F01AFD6846FFF739FF09B0F0BD6F
:10528000314602A8FFF7B0FFE068B4F9105008B14A
:1052900001F046FD06901020ADF81C50FEF7FBFE15
:1052A0000546E8B1002787601820FEF7F4FE0446A3
:1052B00088B10146876002A8FFF74CFE049BA268F4
:1052C000A360059B049206A9E268E36004F1100064
:1052D0000592FFF7FFFE084BEB60084B2C60AB60BC
:1052E00006A8FFF704FF02A8FFF725FE00222946C3
:1052F0000348FFF75BFBB7E793510D0029540D00FE
:1053000011590D002DE9F0478AB005469DF84890E7
:105310000C4617469846FFF7B5FB07AE824638BBEA
:105320004FF62E73059005A93046ADF81830FFF7FB
:10533000D1FE1420FEF7AFFE044648B102230370ED
:105340000123C0E901AA437031460C30FFF7C2FEC9
:105350002846214640F8044BFFF732FF3046FFF75E
:10536000C6FE05A8FFF7C3FE28460AB0BDE8F087D1
:105370000C234FF0000A1420CDE908AA0793FEF78A
:105380008AFE014628B1C0E901AA80F800A080F891
:1053900001A004A80391FFF713FF224B08930820F4
:1053A000FEF779FE824628B1039B40F8043B04A92E
:1053B000FFF747FD00965FFA89F3424639462046DB
:1053C000CDF824A0FFF766FBB8B9039B5B7803F028
:1053D000FF0293B94FF69C7305A903A80592ADF897
:1053E0001830FFF711FF05A8FFF781FE05A80999FE
:1053F000FFF7A7FE06A8FEF763FE039B059304A92B
:1054000006A8FFF71EFD059B069A2B606A60002325
:1054100006A806930593FEF753FE04A8FEF750FE78
:10542000A2E700BFED540D00022AF8B5054607D0EB
:10543000032A18D0012A01D10B6803600020F8BDAF
:1054400018200E68FEF727FE044650B13146FFF7DC
:10545000CBFE3069B6F9147008B101F061FC20612F
:10546000A7822C60EAE70468002CE7D004F1100062
:10547000FFF73DFE2046FFF75EFD1821204600F0B5
:1054800014FCDBE738B5002383608B6804460D46C7
:105490002BB102229847EB68E360AB68A36020461B
:1054A00038BD022A70B5044607D0032A12D0012A5B
:1054B00001D10B680360002070BD14200E68FEF758
:1054C000EAFD054620B13146FFF7DCFF337C2B7443
:1054D0002560F0E70468002CEDD02046FFF72BFD97
:1054E0001421204600F0E1FBE5E70000F0B589B0AB
:1054F00004460D4601A81146FFF723FEA4B124B2CD
:105500001DB1284601F00CFC054601A803A903952E
:10551000ADF81040FFF778FE03A8FFF7E8FD02A8FA
:10552000FEF7CEFD09B0F0BD019D0123D5E84F2F58
:10553000002A03D1C5E8413F0029F7D1EFD12B73F1
:10554000BFF35B8F6B702B1DBFF35B8F53E8006F56
:1055500043E80042002AF9D1BFF35B8F002EDED072
:105560002046FFF71BFA074660B105F10C013046F3
:10557000FFF716FE3046FFF7DEFC1021304600F044
:1055800094FBCCE7314603A8FFF77CFF2B7B8DF81B
:105590001C301020FEF77FFD0546D0B18760142037
:1055A000FEF779FD044678B18760014603A8FFF74E
:1055B000D1FC059BA268A360069B0592E268E360AC
:1055C0009DF81C3006922374064BEB60064B2C6052
:1055D000AB6003A8FFF7AFFC002229460348FFF7A2
:1055E000E5F9C7E7B3510D00A3540D0011590D00A3
:1055F000704710B51821044600F057FB204610BD37
:10560000F0B5037D062B8DB00E4600F104074FF078
:10561000000412D000F1080515F8011D0A223046D9
:10562000FFF755FCAF42044419D0002CF4D02E21D2
:105630003046FFF749FC0444EEE72F236A4639461B
:105640000A208DF80040FFF7D1F8684601F085FB8D
:1056500033680246DB686946304698470446204670
:105660000DB0F0BD10B5054B0446112240F8043BC7
:10567000002101F029FB204610BD00BF086E0D007F
:105680000346074A10B543F8042B01F1100251F804
:10569000044B43F8044B9142F9D10A781A7010BDBB
:1056A000086E0D0010B59DF8084044EA032343EA54
:1056B000024242EA016104234160037510BD13B543
:1056C000CB7800938B784A780978FFF7EBFF02B02C
:1056D00010BD41747047704708B50021007CFFF78A
:1056E0002DF940EAE07008BD08B50121007CFFF704
:1056F00025F940EAE07008BD08B5007CFFF716F90F
:1057000020EAE07008BD08B5007CFFF707F920EA41
:10571000E07008BD13B50446007C0191FFF706F95F
:105720000028019901DC607C20B1207CFFF70EF994
:1057300020EAE07002B010BD007CFFF70FB910B591
:105740001421044600F0B1FA204610BD10B54FF404
:105750007A73044608460021C4E90113044B236010
:105760000123207463741146FFF7D0F8204610BD62
:105770001C6E0D0010B514220446002101F0A4FA9D
:10578000204610BD10B5104C88B003A8FFF7F2FFFB
:105790002178BFF35B8F11F0010111D120460191F7
:1057A000FEF77FFC019958B103AA0848FFF7CEFF26
:1057B0002046FEF77BFC064A0649044800F070FAD2
:1057C000024808B010BD00BF80E7032084E7032033
:1057D00020E70320D7560D00FEF7D8BFFEF7CEBF57
:1057E00070474174704708B5007CFFF73FF820EA26
:1057F000E07008BD08B5007CFFF710F820EAE07003
:1058000008BD08B5007CFFF719F840EAE07008BD54
:1058100008B5007CFFF70AF840EAE07008BD007C9C
:10582000FFF714B837B5457C04462DB1207C03B092
:10583000BDE83040FEF7EABF007C0191FFF716F8A3
:1058400000280199F2DC284603B030BD10B51421C0
:10585000044600F02AFA204610BD000010B54FF0B3
:10586000000C0446084611464FF47A72C4E901C29E
:10587000044A22600122207462741A46FEF7BEFFB9
:10588000204610BD4C6E0D00F7B51B4C26684EB976
:105890008420FEF700FC054618B18422314601F051
:1058A00013FA2560154D2F684FB98420FEF7F3FBDE
:1058B000064618B18422394601F006FA2E60104ED1
:1058C0003178BFF35B8F11F0010112D130460191A5
:1058D000FEF7E7FB019960B122682B680948FFF7E2
:1058E000BDFF3046FEF7E2FB074A0849054800F0D5
:1058F000D7F9044803B0F0BD9CE70320A0E70320DC
:1059000098E70320A4E7032020E70320E1570D00D8
:1059100010B5836804460BB900F0CBF9C36898470B
:10592000A3681BB103222146204698472046102138
:10593000BDE8104000F0B9B97047F8B50646154605
:105940000C468F18BC4206D0336814F8011B9B68C4
:1059500030469847F6E72846F8BD007C0022FEF75F
:105960008DBF007C0021FEF791BF007C0021FEF777
:1059700095BF007C0021FEF799BF007C0021FEF757
:105980009DBF10B51421044600F08FF9204610BDCC
:1059900010B54FF47A73044608460021C4E9011398
:1059A000034B236020741146FEF798FF204610BD7C
:1059B0007C6E0D00002240681146FFF72BB80022D4
:1059C00040681146FFF746B8002240681146FFF7CD
:1059D00051B840680022FFF745B84068002281F0C6
:1059E0000101FFF72FB8002340681A461946FFF758
:1059F00021B8002340681A461946FFF713B8002261
:105A000040681146FEF7F6BF406800220221FEF70B
:105A1000F9BF002340681A46FEF7E4BF024B042298
:105A20005A60024A1A607047B8E70320A46E0D005E
:105A3000002340681A46FEF7D5BF406800220221C5
:105A4000FEF7E0BF002240681146FEF7D3BF0022F8
:105A500040681146FEF7DEBF002340681A4619462B
:105A6000FEF7E0BF002340681A461946FEF7E2BF82
:105A70004068002281F00101FEF7E4BF4068002287
:105A8000FEF7F0BF002240681146FEF7F3BF002288
:105A900040681146FEF7DEBF2DE9F043002495B0C3
:105AA00016460D460746FFF7DDFD214618220EA8D3
:105AB000009401F009F94023CDE90C3421466B46EE
:105AC0000CAA3046FEF742FE0446002846D10246A4
:105AD00001216868FEF79EFF022180462246686821
:105AE000FEF798FF009E81462146002E36D0002901
:105AF00034D17368022B03D00A2B0BD0F669F4E77C
:105B0000B8F1000F04D0716938460431FFF7D7FDB2
:105B10004146F3E7B9F1000F01D14946EEE7746958
:105B2000102201A801F0D0F806238DF8143001AD41
:105B300004F108031834186859682A4603C2083368
:105B4000A3421546F7D101A906A807ADFFF798FDB6
:105B50000FCD3C1D0FC42B682370DEE70098FEF7C5
:105B6000EDFD384615B0BDE8F0830000024B034A56
:105B70001A6000225A607047C0E70320D86E0D00FB
:105B8000232813B502D9002002B010BDA0F10B03E9
:105B9000022B1AD8174C2178BFF35B8F11F001014B
:105BA0000BD120460191FEF77CFA019928B11248E9
:105BB000FEF7F6FF2046FEF779FA0F4B1878FEF74E
:105BC0009DFE0028DFD10120DEE7012809D800F082
:105BD0003FF80021007CFEF779FE80F00100C0B2A2
:105BE000D2E709380128EED8FFF74EFE007CFEF719
:105BF00035FEF2E7C8E70320CCE70320232838B5B9
:105C000004460D460AD8FF2908D0FFF7B9FF28B18E
:105C100029462046BDE83840FEF7A8BD38BD000043
:105C200038B5002320254380142304460380856073
:105C300005610649284600F03AF8044960602846A4
:105C400000F035F8E060204638BD00BF046F0D005D
:105C500030B50F4D2978BFF35B8F11F0010487B089
:105C600013D12846FEF71DFA78B101A8FFF7D8FF37
:105C700001AA21460748FFF78BFE2846FEF716FAD1
:105C8000054A0649034800F00BF8024807B030BD4A
:105C9000D8E70320DCE7032020E7032039590D0073
:105CA0000B460146184600F0F3BFFEF7F8B9FEF7C1
:105CB000F4B908B5FEF716FF10B52DED028B8AB0CA
:105CC000B0EE408A00F07AF8374B93F90040631C3D
:105CD00033D0B4EE488AF1EE10FA2ED6B5EEC08A73
:105CE000F1EE10FA29DC314B019318EE100A002373
:105CF000089300F0D1FACDE90401CDE9020104B323
:105D00002B4BB5EE408A0022F1EE10FACDE90623C6
:105D100041D102239C42009337D1FEF7F3FE2223A8
:105D20000360089B2BB3FEF7EDFE089B0360DDE9E3
:105D3000060100F0C3FD00EE100A0AB0BDEC028BB4
:105D400010BD1C4BB5EE408A4FF06042F1EE10FAE8
:105D5000CDE9062317D001230093684600F02EF901
:105D6000E8B1154800F02CF98DED060B089B002BCF
:105D7000D9D1DDE9060100F0A1FD00EE100A0AB05C
:105D8000BDEC028B10BD02230093684600F016F9AB
:105D90000028EBD1C1E70123022C0093DDD1FEF7EF
:105DA000B1FE21230360DCE7B8E60320086F0D0095
:105DB0000000F0FFFFFFEFC70C6F0D0010EE103A70
:105DC00033F000422DD0002B32DBB3F1FF4F3FDA2E
:105DD000B3F5000F30B432DB00256848684CC3F3DC
:105DE0001601084400F40002DB1582F07E527F3B6E
:105DF0000A432B4400EE102A01F10F05F7EE007A5A
:105E00002C4030EE670A03EBD05324BBB5EE400ABA
:105E1000F1EE10FA61D1002B40F093809FED590A0A
:105E200059E09FED597ADFED577A87EE270A7047E0
:105E300070EE407A9FED537A87EE870A7047DFED68
:105E4000537A60EE277A6FF0180517EE903AC4E7A0
:105E500030EE000A7047B0EE007A30EE077A9FED20
:105E60004C3ADFED4C4ADFED4C5ADFED4C3A9FEDFA
:105E70004C5ADFED4C7ADFED4C6A4C4880EE074A15
:105E8000C1F55712084402F522720243002A07EEB8
:105E9000103A24EE046AF8EEC72A26EE067AE7EEF8
:105EA000034AA7EE235AE4EE875AE5EE076AE5EEC9
:105EB000877A67EE867AE6EE877A2BDDB6EE007A91
:105EC00020EE077A27EE007A53BB77EE877AA7EEAB
:105ED000C47A30EE470A30BC7047DFED357AB6EE53
:105EE000007AA0EE677AF0EE477A20EE007A27EE8D
:105EF000277A002BEDD007EE903A9FED2E6ADFED6A
:105F00002E6AF8EEE77AA7EEC67A37EE400A97EEE9
:105F1000A60AE0E713BB70EE677AA7EEC40ADAE7D9
:105F2000DFED246A9FED246A77EE877A62EEA66A37
:105F3000E7EE846A37EE667A37EE400A92EE860A1A
:105F4000C9E707EE903A9FED1B0A9FED1B7AF8EE2A
:105F5000E77A27EE800AA7EE870ABCE79FED157A5D
:105F6000DFED156A70EE677A27EE627AA7EE847A23
:105F700037EE400A92EEA60AADE700BF20FB4A00CA
:105F8000F0FF7F0000000000000000CC0000004C8B
:105F90009788173E25333A3E2549923E4FD01C3E06
:105FA000298E633EABAA2A3FCDCCCC3E305CCFFFDE
:105FB000ABAAAA3ED1F717378071313F0020704756
:105FC0009FED010B704700BF000000000000F87F4C
:105FD00081F0004102E000BF83F0004330B54FEA9A
:105FE00041044FEA430594EA050F08BF90EA020F07
:105FF0001FBF54EA000C55EA020C7FEA645C7FEA9A
:10600000655C00F0E2804FEA5454D4EB5555B8BFBC
:106010006D420CDD2C4480EA020281EA030382EA2D
:10602000000083EA010180EA020281EA0303362DBF
:1060300088BF30BD11F0004F4FEA01314FF4801C92
:106040004CEA113102D0404261EB410113F0004FA4
:106050004FEA03334CEA133302D0524263EB43035B
:1060600094EA050F00F0A780A4F10104D5F1200EF9
:106070000DDB02FA0EFC22FA05F2801841F1000154
:1060800003FA0EF2801843FA05F359410EE0A5F128
:1060900020050EF1200E012A03FA0EFC28BF4CF059
:1060A000020C43FA05F3C01851EBE37101F000450F
:1060B00007D54FF0000EDCF1000C7EEB00006EEB1C
:1060C0000101B1F5801F1BD3B1F5001F0CD34908A6
:1060D0005FEA30004FEA3C0C04F101044FEA4452FD
:1060E00012F5800F80F09A80BCF1004F08BF5FEA84
:1060F000500C50F1000041EB045141EA050130BD64
:106100005FEA4C0C404141EB0101013C28BFB1F575
:10611000801FE9D291F0000F04BF01460020B1FAC0
:1061200081F308BF2033A3F10B03B3F120020CDA93
:106130000C3208DD02F1140CC2F10C0201FA0CF071
:1061400021FA02F10CE002F11402D8BFC2F1200CD6
:1061500001FA02F120FA0CFCDCBF41EA0C0190408C
:10616000E41AA2BF01EB0451294330BD6FEA0404D5
:106170001F3C1CDA0C340EDC04F11404C4F12002C0
:1061800020FA04F001FA02F340EA030021FA04F3D2
:1061900045EA030130BDC4F10C04C4F1200220FA29
:1061A00002F001FA04F340EA0300294630BD21FA67
:1061B00004F0294630BD94F0000F83F4801306BF2D
:1061C00081F480110134013D4EE77FEA645C18BF21
:1061D0007FEA655C29D094EA050F08BF90EA020FB8
:1061E00005D054EA000C04BF1946104630BD91EAB0
:1061F000030F1EBF0021002030BD5FEA545C05D1B3
:106200004000494128BF41F0004130BD14F58004F1
:106210003CBF01F5801130BD01F0004545F0FE4165
:1062200041F470014FF0000030BD7FEA645C1ABF9A
:10623000194610467FEA655C1CBF0B46024650EAD1
:10624000013406BF52EA033591EA030F41F40021FD
:1062500030BD00BF90F0000F04BF0021704730B583
:106260004FF4806404F132044FF000054FF0000158
:1062700050E700BF90F0000F04BF0021704730B519
:106280004FF4806404F1320410F0004548BF4042EE
:106290004FF000013EE700BF42004FEAE2014FEA43
:1062A00031014FEA02701FBF12F07F4393F07F4F1E
:1062B00081F06051704732F07F4208BF704793F021
:1062C0007F4F04BF41F40021704730B54FF4607434
:1062D00001F0004521F000411CE700BF50EA010237
:1062E00008BF704730B54FF000050AE050EA0102E0
:1062F00008BF704730B511F0004502D5404261EB50
:1063000041014FF4806404F132045FEA915C3FF490
:10631000D8AE4FF003025FEADC0C18BF03325FEA2D
:10632000DC0C18BF033202EBDC02C2F1200300FADE
:1063300003FC20FA02F001FA03FE40EA0E0021FA03
:1063400002F11444BDE600BF70B54FF0FF0C4CF4F1
:10635000E06C1CEA11541DBF1CEA135594EA0C0FA3
:1063600095EA0C0F00F0DEF82C4481EA030621EADE
:106370004C5123EA4C5350EA013518BF52EA033519
:1063800041F4801143F4801338D0A0FB02CE4FF0CB
:106390000005E1FB02E506F00042E0FB03E54FF0FB
:1063A0000006E1FB03569CF0000F18BF4EF0010EF3
:1063B000A4F1FF04B6F5007F64F5407404D25FEAEF
:1063C0004E0E6D4146EB060642EAC62141EA5551A2
:1063D0004FEAC52040EA5E504FEACE2EB4F1FD0CE4
:1063E00088BFBCF5E06F1ED8BEF1004F08BF5FEA62
:1063F000500E50F1000041EB045170BD06F0004614
:1064000046EA010140EA020081EA0301B4EB5C04C0
:10641000C2BFD4EB0C0541EA045170BD41F48011B8
:106420004FF0000E013C00F3AB8014F1360FDEBFDD
:10643000002001F0004170BDC4F10004203C35DAB9
:106440000C341BDC04F11404C4F1200500FA05F33C
:1064500020FA04F001FA05F240EA020001F00042DD
:1064600021F0004110EBD37021FA04F642EB060153
:106470005EEA430E08BF20EAD37070BDC4F10C047D
:10648000C4F1200500FA04F320FA05F001FA04F241
:1064900040EA020001F0004110EBD37041F100012D
:1064A0005EEA430E08BF20EAD37070BDC4F1200538
:1064B00000FA05F24EEA020E20FA04F301FA05F2A0
:1064C00043EA020321FA04F001F0004121FA04F248
:1064D00020EA020000EBD3705EEA430E08BF20EA18
:1064E000D37070BD94F0000F0FD101F00046400052
:1064F00041EB010111F4801F08BF013CF7D041EAD4
:10650000060195F0000F18BF704703F000465200D7
:1065100043EB030313F4801F08BF013DF7D043EAA8
:106520000603704794EA0C0F0CEA135518BF95EA5E
:106530000C0F0CD050EA410618BF52EA4306D1D1E5
:1065400081EA030101F000414FF0000070BD50EA04
:10655000410606BF1046194652EA430619D094EA8E
:106560000C0F02D150EA013613D195EA0C0F05D178
:1065700052EA03361CBF104619460AD181EA0301CC
:1065800001F0004141F0FE4141F470014FF0000084
:1065900070BD41F0FE4141F4780170BD70B54FF01F
:1065A000FF0C4CF4E06C1CEA11541DBF1CEA13559F
:1065B00094EA0C0F95EA0C0F00F0A7F8A4EB050481
:1065C00081EA030E52EA03354FEA013100F0888078
:1065D0004FEA03334FF0805545EA131343EA126341
:1065E0004FEA022245EA111545EA10654FEA0026F6
:1065F0000EF000419D4208BF964244F1FD0404F5AF
:10660000407402D25B084FEA3202B61A65EB03050A
:106610005B084FEA32024FF480104FF4002CB6EBC7
:10662000020E75EB030E22BFB61A754640EA0C0047
:106630005B084FEA3202B6EB020E75EB030E22BF87
:10664000B61A754640EA5C005B084FEA3202B6EBC8
:10665000020E75EB030E22BFB61A754640EA9C0087
:106660005B084FEA3202B6EB020E75EB030E22BF57
:10667000B61A754640EADC0055EA060E18D04FEA15
:10668000051545EA16754FEA06164FEAC30343EAB5
:1066900052734FEAC2025FEA1C1CC0D111F4801F82
:1066A0000BD141EA00014FF000004FF0004CB6E77B
:1066B00011F4801F04BF01430020B4F1FD0C88BF1A
:1066C000BCF5E06F3FF6AFAEB5EB030C04BFB6EB25
:1066D000020C5FEA500C50F1000041EB045170BD18
:1066E0000EF0004E4EEA113114EB5C04C2BFD4EB45
:1066F0000C0541EA045170BD41F480114FF0000EC9
:10670000013C90E645EA060E8DE60CEA135594EA44
:106710000C0F08BF95EA0C0F3FF43BAF94EA0C0F47
:106720000AD150EA01347FF434AF95EA0C0F7FF4BC
:1067300025AF104619462CE795EA0C0F06D152EA10
:1067400003353FF4FDAE1046194622E750EA4106F4
:1067500018BF52EA43067FF4C5AE50EA41047FF405
:106760000DAF52EA43057FF4EBAE12E74FF0FF3C6A
:1067700006E000BF4FF0010C02E000BF4FF0010C3B
:106780004DF804CD4FEA410C7FEA6C5C4FEA430CB4
:1067900018BF7FEA6C5C1BD001B050EA410C0CBF03
:1067A00052EA430C91EA030F02BF90EA020F002065
:1067B000704710F1000F91EA030F58BF994208BFCC
:1067C00090422CBFD8176FEAE37040F00100704789
:1067D0004FEA410C7FEA6C5C02D150EA013C07D1E0
:1067E0004FEA430C7FEA6C5CD6D152EA033CD3D02B
:1067F0005DF8040B704700BF8446104662468C4625
:106800001946634600E000BF01B5FFF7B7FF002857
:1068100048BF10F1000F01BD4DF808EDFFF7F4FF80
:106820000CBF012000205DF808FB00BF4DF808ED0B
:10683000FFF7EAFF34BF012000205DF808FB00BF2E
:106840004DF808EDFFF7E0FF94BF012000205DF850
:1068500008FB00BF4DF808EDFFF7CEFF94BF012005
:1068600000205DF808FB00BF4DF808EDFFF7C4FFFE
:1068700034BF012000205DF808FB00BF4A0011D2A0
:1068800012F5001211D20DD56FF47873B3EB62528A
:106890000ED44FEAC12343F0004343EA505323FA96
:1068A00002F070474FF00000704750EA013002D10B
:1068B0004FF0FF3070474FF0000070474FEA410241
:1068C000B2F1E04324BFB3F5001CDCF1FE5C0DD94E
:1068D00001F0004C4FEAC0024CEA5070B2F1004F98
:1068E00040EB830008BF20F00100704711F0804F9B
:1068F00021D113F13872BCBF01F00040704741F460
:1069000080114FEA5252C2F11802C2F1200C10FA63
:106910000CF320FA02F018BF40F001004FEAC12347
:106920004FEAD32303FA0CFC40EA0C0023FA02F3EB
:106930004FEA4303CCE77FEA625307D150EA0133C1
:106940001EBF4FF0FE4040F44000704701F0004091
:1069500040F0FE4040F40000704700BF53B94AB910
:10696000002908BF00281CBF4FF0FF314FF0FF3057
:1069700000F08CB9ADF1080C6DE904CE00F024F8FC
:10698000DDF804E0DDE9022304B07047D0B50C4B1C
:10699000002206460F46FFF7D7FCFFF76FFF0446BD
:1069A000FFF758FC074B0022FFF7CEFC02460B46D0
:1069B00030463946FFF710FBFFF760FF2146D0BD98
:1069C0000000F03D0000F0412DE9F047089D04462D
:1069D0008C46002B40F083808A42174647D9B2FA92
:1069E00082F242B1C2F1200024FA00F091409740B7
:1069F00040EA010C94404FEA1748230CBCFBF8F620
:106A00001FFA87FE08FB16C143EA014306FB0EF19D
:106A1000994209D9FB1806F1FF3080F0198199429B
:106A200040F21681023E3B445B1AA4B2B3FBF8F07D
:106A300008FB103344EA034400FB0EFEA64509D9C7
:106A40003C1900F1FF3380F00581A64540F2028138
:106A500002383C4440EA0640A4EB0E0400261DB177
:106A6000D4400023C5E900433146BDE8F08702B9B0
:106A7000FFDEB2FA82F2002A50D1CB1B4FEA174E4A
:106A80001FFA87F80126B3FBFEFC210C0EFB1C331A
:106A900041EA034108FB0CF38B4207D979180CF14A
:106AA000FF3002D28B4200F2E9808446C91AA3B2B9
:106AB000B1FBFEF00EFB101143EA014408FB00F8A5
:106AC000A04507D93C1900F1FF3302D2A04500F2DE
:106AD000D9801846A4EB080440EA0C40BFE78B427B
:106AE00009D9002D00F0B1800026C5E9000130462B
:106AF0003146BDE8F087B3FA83F6002E4AD18B42C7
:106B000002D3824200F2B880841A61EB03010120B3
:106B10008C46002DA8D0C5E9004CA5E7C2F12003A2
:106B200020FA03F6974001FA02F04FEA174ED940D7
:106B30003043030CB1FBFEF61FFA87F80EFB16116B
:106B400043EA014306FB08F1994204FA02F409D929
:106B5000FB1806F1FF3C80F08D80994240F28A805C
:106B6000023E3B445B1A81B2B3FBFEF00EFB1033D6
:106B700041EA034100FB08F38B4207D9791800F181
:106B8000FF3C73D28B4271D902383944CB1A40EAA8
:106B9000064678E7C6F1200C03FA06F422FA0CF355
:106BA0001C4320FA0CF701FA06F34FEA144E21FABF
:106BB0000CF11F433B0CB1FBFEF91FFA84F80EFBEE
:106BC000191143EA014109FB08FA8A4502FA06F263
:106BD00000FA06F308D9611809F1FF3048D28A4556
:106BE00046D9A9F102092144A1EB0A01BFB2B1FBC8
:106BF000FEF00EFB101147EA014700FB08F8B8450C
:106C000007D9E71900F1FF312ED2B8452CD9023847
:106C1000274440EA0940A7EB0807A0FB02894F453B
:106C2000C64649461AD317D05DB1B3EB0E0267EBE7
:106C3000010707FA0CFCF2404CEA0202F740C5E9F2
:106C4000002700263146BDE8F0872E4628460BE790
:106C50000646E9E61846FDE64345E5D2B8EB020EE6
:106C600069EB04010138DFE70846D2E760468DE7AB
:106C70008146B9E7664675E730464AE7ACF1020C53
:106C8000394413E702383C4424E700BF704700BF93
:106C900010B5054C13462CB10A4601460220AFF34D
:106CA000008010BD2046FCE7000000000A4491422D
:106CB00000F1FF3300D1704710B511F8014B03F814
:106CC000014F9142F9D110BD02440346934200D1D5
:106CD000704703F8011BF9E738B50D4B1D68AB6B26
:106CE00004467BB91820FDF7E5FE0A4A0A4BA86363
:106CF000C0E90023094B83600B2383810122002319
:106D0000C0E90423AB6B00221C615A6138BD00BF8F
:106D1000BCE603200E33CDAB34126DE6ECDE05008D
:106D2000024B0146186800F003B800BFBCE6032020
:106D300037B5044608460D4600F00FF8421C1146D0
:106D400020460192FDF7D6FE044618B1019A294665
:106D5000FFF7ACFF204603B030BD034613F8012B0C
:106D6000002AFBD1181A01387047000021400D009D
:106D70005D400D0085400D0089400D0000000000C1
:106D800074656D700068756D6964697479000000E0
:106D90000000000000000000834B0D00794B0D0047
:106DA0006F4B0D00654B0D00594B0D004D4B0D0009
:106DB000414B0D00394B0D002F4B0D00254B0D00A5
:106DC000995A0D006170700025592D256D2D25648F
:106DD0005425483A254D3A2553257A00617363744A
:106DE000696D65000000000000000000B9500D0052
:106DF000BF500D00FD500D00CD500D00BB500D00DB
:106E0000000000000000000001560D00F1550D00CB
:106E1000F3550D000000000000000000D7560D00E3
:106E20003F570D0015570D00794E0D0007570D0007
:106E3000D9560D00E9560D0039570D00F9560D00D1
:106E4000D3560D000000000000000000E1570D00C7
:106E50004D580D0025580D00794E0D00F5570D00C9
:106E600011580D0003580D001F580D00E3570D0079
:106E7000E7570D00000000000000000039590D0028
:106E800083590D005B590D003B590D0063590D00EE
:106E90006B590D0073590D007B590D000000000067
:106EA00000000000135A0D00095A0D00FF590D0093
:106EB000B5590D00F3590D00E7590D00DB590D00D0
:106EC000D3590D00C9590D00BF590D00995A0D0035
:106ED0000000000000000000315A0D003B5A0D0078
:106EE000455A0D004F5A0D00595A0D00655A0D00B4
:106EF000715A0D007D5A0D00855A0D008F5A0D00F4
:106F0000995A0D00000000006C6F676600000000D9
:106F10007D410D008D4B0D00D54B0D00514E0D00E8
:106F20000D4F0D001D4F0D00794F0D001D5A0D0026
:106F30006D5B0D000000000000000000000000007C
:086F400088FAFF7F0100000048
:046F48000000000045
:106F4C00DC6D0D0001000000C0E603200000000015
:106F5C000000000000000000000000000000000025
:106F6C000000000000000000000000000000000015
:106F7C000000000000000000000000000000000005
:106F8C0000000000000000000000000000000000F5
:106F9C0000000000000000000000000000000000E5
:0C6FAC00000000000000000000000000D9
:106FB800FFFFFFFF00000102030405060708090A96
:106FC8000B0C0D0E0F101112131415161718191A91
:086FD8001B1C1D1E1F202800D8
:046FE0007856341299
:04000003D0004020C9
:00000001FF
