:02000004080AE8
:1000000000000A0890340A080000060006000501F6
:080010000402DB070000000000
:0400180058320A0848
:1000200009480A4908B5884205D0094A824202D0E7
:10003000121A03F0B3F80748074A0021121A03F016
:10004000BBF8064808BD00BF00000020FC330A08CA
:100050006C0000206C00002068050020680500206E
:1000600070B500F02BFF0025054E064CA41BA4081C
:10007000A54200D170BD56F8043B98470135F7E71B
:10008000C8330A08E8330A0800F016B808B500F0CB
:100090002FF8BDE8084000F0D3BE00F087BC00F0A8
:1000A00085BC00F08BBC0078B0FA80F04009704746
:1000B0000123037070470000014800F07BB800BFC7
:1000C0007400002038B5046805467CB16368013BC4
:1000D00063605BB9236820469B689847A368013B2F
:1000E000A3601BB923682046DB689847284638BDC3
:1000F00010B5214C90B04FF4FA6000F039FE204664
:1001000000F072FA0622014604A800F0B4FD204671
:1001100000F094FA0622014608A800F0ACFD204643
:1001200000F08EFA154C014606220CA800F0A3FD43
:100130002378049A12498DF8003002A83C2301F07C
:1001400015F803A8FFF7BEFF2378089A0D498DF82C
:10015000003002A83C2301F009F803A8FFF7B2FF22
:100160000CA800F02DFD08A800F02AFD04A800F05E
:1001700027FD10B010BD00BF7400002070000020EB
:100180006C320A0871320A080122044B02211A70EB
:1001900003480623162200F005B800BF70000020B7
:1001A000740000200372012310B58171C2710374C1
:1001B00010BD00002DE9F04105461A4C0021807960
:1001C00001F058FCAE792378174F13F0010FBFF3FD
:1001D0005B8F09D12046FFF766FF28B100F040FA97
:1001E00038602046FFF764FF1C235E433B6803EB47
:1001F00006082378BFF35B8FDB0709D40948FFF7B4
:1002000052FF28B100F02CFA38600648FFF750FF83
:100210003B68B8F804209B591A830023EB60BDE8C3
:10022000F08100BF880000208C000020000000004A
:100230002DE9F8430846164601F0BCFF04460D467A
:100240003046254902F0DAFC01F08AFC1EA3D3E90E
:10025000002306462946204602F004F81CA3D3E9F1
:100260000023804689462046294601F045FE024685
:100270000B464046494602F01FF9044630460D46FB
:1002800001F098FF02460B462046294601F034FE55
:100290000FA3D3E9002306460F4601F0E3FF3246E1
:1002A00004460D4608A1D1E900013B4601F022FEBB
:1002B00002460B462046294602F0FEF802F08CFA70
:1002C000BDE8F883AFF300804C3789416045314089
:1002D0006666666666B66D400000C8422DE9F74F57
:1002E000044600F0EDF9E368834284BF0023E36035
:1002F000237C2BB9E368C01AB0F5FA6FC0F03E81D9
:100300000025257400F0DCF99E4E25602571E06023
:10031000A77933789C4D13F0010FBFF35B8F09D1A0
:100320003046FFF7C0FE28B100F09AF92860304649
:10033000FFF7BEFE1C235F432B6803EB07083378EF
:10034000BFF35B8FD90709D48E48FFF7ACFE28B105
:1003500000F086F928608B48FFF7AAFE2B68B8F8F2
:100360000420DB59FA201A8300F002FD0121A07954
:1003700001F080FBA7793378BFF35B8FDA0709D4EC
:100380008048FFF790FE28B100F06AF928607D48A8
:10039000FFF78EFE1C235F432B6803EB07083378BF
:1003A000BFF35B8FDB0709D47648FFF77CFE28B1EB
:1003B00000F056F928607348FFF77AFE2B68B8F80A
:1003C0000420DB5914205A8300F0D2FC01F074F9A8
:1003D000A7793378BFF35B8FD80709D46948FFF753
:1003E00062FE28B100F03CF928606648FFF760FE25
:1003F0001C235F432B6803EB07083378BFF35B8F45
:10040000D90709D45F48FFF74EFE28B100F028F95C
:1004100028605C48FFF74CFE2B68B8F80420DB59D5
:1004200000271A83282000F043F90021A07901F069
:1004300021FB0123BA46DFF84C8100934FF00009FD
:1004400094F806B03378BFF35B8FDA0709D44046DF
:10045000FFF729FE28B100F003F928604046FFF7B6
:1004600027FE1C2303FB0BFB2B6853F80B301B6987
:1004700001933378BFF35B8FDB0709D44046FFF766
:1004800012FE28B100F0ECF828604046FFF710FE9D
:100490002B68019A5B449B88134214BF01230023FD
:1004A000009A934209D109F1010901205FFA89F903
:1004B00000F0FEF8B9F1FF0FC2D194F806B033781E
:1004C000BFF35B8FD80709D44046FFF7ECFD28B196
:1004D00000F0C6F828604046FFF7EAFD1C2303FB46
:1004E0000BFB2B6853F80B301B6900933378BFF379
:1004F0005B8FD90709D44046FFF7D5FD28B100F03E
:10050000AFF828604046FFF7D3FD2B68009A5B44A4
:100510009B88134214BF01230023B9F1FF0F0093FE
:1005200018D0032F11D9FA070FD44FEADA02A35CCF
:100530000AF1010A5B00DBB2A354217A5FFA8AFA5E
:1005400049453CBF43F00103A3540137FFB2552F87
:100550007FF474AF01F0B2F8BAF1270F10D96378C5
:1005600020781844A3781844E37818442379C0B25B
:10057000C31A5842584103B0BDE8F08F0120FAE792
:100580000020F8E7880000208C00002070B50446A9
:10059000FFF7A4FE08B3E3790B2B1AD0153B012B10
:1005A0001BD8A67806F07F0002F020FA4FF08741B2
:1005B00002F070FA0546E07802F018FA294602F0D7
:1005C00061F9074902F01AFB330605D500F1004036
:1005D00002E0A07802F006FA70BD0248FCE700BF16
:1005E000000020410000C07FFFF7D0BF38B50446AF
:1005F000FFF774FED8B1E3790B2B14D0153B012B18
:1006000015D8207802F0EEF94FF0874102F042FA57
:100610000546607802F0EAF9294602F033F9054907
:1006200002F0ECFA38BD207802F0DCF9FAE7024873
:10063000F8E700BF000020410000C07FFFF7D6BFF1
:1006400038B50446FFF7A2FF05462046FFF7CEFF68
:10065000294602462046BDE83840FFF7E9BD0000C4
:1006600008B5024B1B681B68019308BDB001060862
:1006700008B5024B1B689B68019308BDB0010608D2
:1006800008B5024B1B681B6A019308BDB001060840
:1006900008B5024B1B685B6A019308BDB0010608F0
:1006A00008B5024B1B685B68019308BD9C010608F6
:1006B00008B5024B1B68DB68019308BD9C01060866
:1006C00008B5024B1B685B69019308BD9C010608D5
:1006D00008B5024B1B685B6C019308BDD00106088E
:1006E00008B5024B1B689B6C019308BDD00106083E
:1006F00008B5024B1B689B69019308BDC40106083D
:1007000008B5024B1B685B6A019308BDC40106086B
:1007100008B5024B1B689B6A019308BDC40106081B
:1007200008B5024B1B68DB6A019308BDC4010608CB
:1007300008B5024B1B681B6B019308BDC40106087A
:1007400008B5024B1B685B6B019308BDC40106082A
:1007500008B5024B1B689B6B019308BDC4010608DA
:1007600008B5024B1B681B6C019308BDC401060849
:1007700008B5024B1B681B6E019308BDAC0106084F
:1007800008B5024B1B685B6E019308BDAC010608FF
:1007900008B5024B1B689B6E019308BDAC010608AF
:1007A00008B5024B1B68DB6E019308BDAC0106085F
:1007B00008B5024B1B681B6F019308BDAC0106080E
:1007C00008B5024B1B685B6F019308BDAC010608BE
:1007D00008B5034B1B68D3F88030019308BD0000B7
:1007E000AC01060808B5024B1B68DB69019308BD24
:1007F000B401060808B5024B1B681B6A019308BDCB
:10080000B401060808B5024B1B681B68019308BDBC
:10081000D801060808B5024B1B681B69019308BD87
:10082000D801060808B5024B1B685B69019308BD37
:10083000D801060808B5024B1B689B69019308BDE7
:10084000D801060808B5024B1B68DB69019308BD97
:10085000D801060808B5024B1B681B6A019308BD46
:10086000D801060808B5024B1B689B6C019308BDB4
:10087000C001060808B5024B1B685B68019308BD00
:10088000A401060808B5024B1B685B69019308BD0B
:10089000A401060808B5024B1B68DB6C019308BD78
:1008A000A401060808B5024B1B685B6D019308BDE7
:1008B000A401060808B5034B1B68D3F890300193D8
:1008C00008BD0000A401060808B5034B1B68D3F857
:1008D0009C30019308BD0000A401060808B5024B36
:1008E0001B685B68019308BDC801060808B5024B88
:1008F0001B689B68019308BDC801060808B5024B38
:100900001B68DB68019308BDC801060808B5024BE7
:100910001B681B69019308BDC801060808B5024B96
:100920001B685B69019308BDC801060808B5024B46
:100930001B689B69019308BDC801060808B5024BF6
:100940001B68DB69019308BDC801060808B5024BA6
:100950001B681B6A019308BDC801060808B5024B55
:100960001B681B6B019308BDC801060808B5024B44
:100970001B685B6B019308BDC801060808B5024BF4
:100980001B685B69019308BDCC01060808B5024BE2
:100990001B681B6A019308BDCC01060808B5024B11
:1009A0001B68DB6B019308BDCC01060808B5024B40
:1009B0001B681B68019308BDA001060808B5024B1F
:1009C0001B685B68019308BDA001060808B5024BCF
:1009D0001B689B68019308BDA001060808B5024B7F
:1009E0001B68DB6A019308BDA001060808B5024B2D
:1009F0001B681B6B019308BDA001060808B5024BDC
:100A00001B68DB6B019308BDA001060808B5024B0B
:100A10001B685B6C019308BDA001060870B5002639
:100A200004460D4640F8086FFFF752FE2846257031
:100A3000FFF7D8FE2046666070BD10B5044600681A
:100A400018B1FFF7BBFF0023236010BD10B50446AB
:100A5000FFF7F3FF204610BD0222002010B5084B1F
:100A6000084C1A60084B2060A080A071A360FFF7BB
:100A700001FF2046BDE81040044A054901F064B872
:100A80009C000020900000200000FFFF6C00002070
:100A90004D0A0A0810B5044602F0D5FB431E204655
:100AA0002344834206D90278197800F8011B03F821
:100AB0000129F6E710BD70B50C46911E222922D8F7
:100AC000254668B1B0FBF2F602FB1600C1B2092858
:100AD00094BF30315731C9B2304605F8011BF0E7F9
:100AE0002A4630212344934202D902F8011BFAE737
:100AF0005A1BAB4238BF002200232046AB54FFF7FD
:100B0000C9FF204670BD0020FCE700002DE9F0473A
:100B100007460D4616461C46002200233846294645
:100B200001F012FE20B12D2305F1004504F8013B30
:100B300000234FF0010A0A22D9B28E4203D902FBE8
:100B40000AFA0133F8E7504601F022FB3A462B46F9
:100B500001F088FB8046894602F090F905460F4671
:100B600001F04AFB02460B464046494601F0C2F9F5
:100B70000022124B01F0FCFD10B1013547F10007D6
:100B8000524628463946D31702F060F9012315462C
:100B900021460A22FFF78FFF6EB1204602F053FB79
:100BA0002E23211823540A2233462846BDE8F04755
:100BB0000131FFF780BFBDE8F08700BF0000E03FD4
:100BC00010B504460068FFF7F9FE204610BD10B5C9
:100BD0000446006808B1FFF7F1FE0023C4E90133C1
:100BE000236010BD38B504460D4600680131FFF79B
:100BF000EDFE10B1C4E90005012038BD10B5036851
:100C0000044623B143688B4201D3012010BD204626
:100C1000FFF7E8FF0028F9D0A368002BF5D1226880
:100C20001370F2E770B50E46114604461546FFF7FD
:100C3000E5FF20B92046FFF7CAFF204670BD2A46CF
:100C400031462068A56002F0A9FA00212268A36855
:100C5000D154F2E738B505460C4649B1084602F0D2
:100C6000F2FA214602462846FFF7DCFF284638BD47
:100C7000FFF7ADFFFAE7002330B504468BB0C0E9BB
:100C8000003383600373D5B2084601F093FA2A4615
:100C900001ABFFF73BFF204601A9FFF7DBFF204632
:100CA0000BB030BDF8B506460D4600248F18BD4286
:100CB0000CD0336830469B6815F8011B9847031E1B
:100CC00001DB1C44F3E7002C08BF1C462046F8BD9E
:100CD00070B505460C46084649B102F0B4FA2B68D7
:100CE000024621462846BDE87040DB68184770BDC3
:100CF00003689B6818470023012A98BF0A2230B571
:100D00008BB00C468DF8243009A92546B4FBF2F4CB
:100D100004FB1253DBB2092B94BF30333733DBB201
:100D2000AA4201F8013DF0D9FFF7D2FF0BB030BD68
:100D3000002340681A461946FFF7F0BD0B680360B0
:100D400013B15A6801325A6070470000014B024AE1
:100D50001A607047A00000207A320A08024B1A6815
:100D6000024B1A60704700BF00000020A400002062
:100D70000021FFF787BD10B58368044613B1032235
:100D800001469847204610BD10B50446FFF7F3FF13
:100D9000204610BD13B56C460B46024603C884E8D6
:100DA000030093E8030082E8030094E8030083E86B
:100DB000030002B010BD000000230348034A0449A9
:100DC000836000F0C1BE00BFA80000206C000020BE
:100DD000890D0A08014B1860704700BF0800002009
:100DE00008B5134B43B100F001FC03681B69984739
:100DF000002801DDAFF300800E4B43B100F0B2FCE0
:100E000003681B699847002801DDAFF300800A4B97
:100E10000BB1AFF30080094B43B100F025FC036830
:100E20001B699847002801DDAFF3008008BD00BFB3
:100E300000000000000000000000000000000000B2
:100E400008B5FFF7CDFFFFF73BFC014B186008BD6D
:100E5000340500200248034A0349121A02F09EB9E1
:100E60000040024004400240F8330A08002307B55E
:100E70001A466FF077010093FFF726FD03B05DF887
:100E800004FB000007B543880A2B08D0502B0BD178
:100E9000094B1B684BB103B05DF804EB1847FFF733
:100EA000E5FF03B05DF804FB00231A466FF07701FD
:100EB0000093FFF709FDF4E7BC00002038B5124CA1
:100EC00000211248FFF7A2FD114D2368AB420CBF71
:100ED000012200220F4B1A7002D0FFF7BBFF2560E2
:100EE000FFF7DEFB044602F06FF90B4B13B120460F
:100EF000AFF3008000210848FFF750FDBDE83840FF
:100F000000210648FFF7D6BC00400240D50D0A0874
:100F10001E1C279AB800002000000000850E0A0859
:100F200070470020704710B50446102100F011FEF4
:100F3000204610BD08B5FFF7F6FF08BD002230B50A
:100F40004FF69C74026084808D888C800C6885804C
:100F500004600A6030BD10B504460068FFF72EFD3E
:100F6000204610BD38B5C468F4B12378022B03D1F4
:100F700004F10C00FFF7EFFF656835B12846FFF775
:100F8000FAFE1021284600F0E4FDA56835B1284698
:100F9000FFF7F1FE1021284600F0DBFD2046BDE8FA
:100FA0003840142100F0D5BD38BD73B50E46044657
:100FB00056F8043B0D4601A831460093FFF7BEFEEC
:100FC000009B019A23600023626001A801930093B3
:100FD000FFF778F83046FFF775F82846082100F04B
:100FE000B8FD204602B070BD826810B50AB900F0A5
:100FF000B4FDC368BDE81040184708B5006800F1AB
:101000001001FFF7F1FF08BD826810B50AB900F0C2
:10101000A4FDC368BDE81040184708B5006800F19A
:101020001001FFF7F1FF08BD38B500230446036047
:1010300010200D46FFF731F828B10123C0E9013334
:10104000024BC56003602060204638BDA4320A0808
:1010500038B5002383608B6804460D462BB102220D
:101060009847EB68E360AB68A360204638BD00009A
:10107000F0B589B004686846FFF760FF4FF00203DF
:10108000D4E84F2F002A03D1C4E8413F0029F7D10B
:1010900025D104F10C0569462846FFF74FFF0123CF
:1010A000BFF35B8F63700020BFF35B8F04F1080315
:1010B00053E8006F43E80002002AF9D1BFF35B8FC9
:1010C0006EB1FFF7E7FB78B129463046FFF78CFF9A
:1010D0003046FFF750FE1021304600F03AFD6846DA
:1010E000FFF739FF09B0F0BD314602A8FFF7B0FFA6
:1010F000E068B4F9105008B102F08AF806901020A8
:10110000ADF81C50FEF7C9FF0546E8B1002787601F
:101110001820FEF7C2FF044688B10146876002A886
:10112000FFF738FE049BA268A360059B0492E26867
:1011300006A9E36004F110000592FFF7FFFE084BDB
:101140002C60EB60074BAB6006A8FFF704FF02A81A
:10115000FFF711FE002229460348FFF7A3FBB7E77C
:10116000FB0F0A0891120A08B5170A082DE9F04783
:101170008AB005460C46174698469DF84890FFF7FA
:10118000FDFB07AE824638BB4FF62E73059005A9CE
:101190003046ADF81830FFF7D1FE1420FEF77DFF82
:1011A000044648B1022303700123C0E901AA437039
:1011B00031460C30FFF7C2FE2846214640F8044B6A
:1011C000FFF732FF3046FFF7C6FE05A8FFF7C3FE64
:1011D00028460AB0BDE8F0870C234FF0000A14201F
:1011E000CDE908AA0793FEF758FF014628B1C0E9E8
:1011F00001AA80F800A080F801A004A80391FFF7DD
:1012000013FF224B08200893FEF747FF824628B1C0
:10121000039B04A940F8043BFFF790FD4246394682
:10122000204600965FFA89F3CDF824A0FFF7AEFBC5
:10123000B8B9039B5B7803F0FF0293B94FF69C7338
:1012400005A903A80592ADF81830FFF711FF05A80E
:10125000FFF781FE05A80999FFF7A7FE06A8FEF78C
:1012600031FF039B04A906A80593FFF767FD059BC3
:10127000069A2B6000236A6006A806930593FEF782
:1012800021FF04A8FEF71EFFA2E700BF55130A08BE
:10129000022AF8B5054607D0032A18D0012A01D141
:1012A0000B6803600020F8BD18200E68FEF7F5FEFD
:1012B000044650B13146FFF7CBFE3069B6F91470E1
:1012C00008B101F0A5FF2061A7822C60EAE704685D
:1012D000002CE7D004F11000FFF73DFE2046FFF799
:1012E0004AFD1821204600F034FCDBE738B5002326
:1012F00083608B6804460D462BB102229847EB6849
:10130000E360AB68A360204638BD022A70B504468E
:1013100007D0032A12D0012A01D10B6803600020F4
:1013200070BD14200E68FEF7B8FE054620B13146A8
:10133000FFF7DCFF337C2B742560F0E70468002C9A
:10134000EDD02046FFF717FD1421204600F001FCE8
:10135000E5E70000F0B5044689B00D4601A8114646
:10136000FFF723FEA4B124B21DB1284601F050FFBF
:10137000054601A803A90395ADF81040FFF778FED4
:1013800003A8FFF7E8FD02A8FEF79CFE09B0F0BD38
:101390000123019DD5E84F2F002A03D1C5E8413F25
:1013A0000029F7D1EFD12B73BFF35B8F6B70BFF3C5
:1013B0005B8F2B1D53E8006F43E80042002AF9D1F0
:1013C000BFF35B8F002EDED02046FFF763FA07469F
:1013D00060B1304605F10C01FFF716FE3046FFF70D
:1013E000CAFC1021304600F0B4FBCCE7314603A81C
:1013F000FFF77CFF2B7B10208DF81C30FEF74DFE95
:101400000546D0B187601420FEF747FE044678B148
:101410000146876003A8FFF7BDFC059BA268A36097
:10142000069B0592E268E3609DF81C3006922374E7
:10143000064B2C60EB60064BAB6003A8FFF79BFCF0
:10144000002229460348FFF72DFAC7E71B100A08B8
:101450000B130A08B5170A08704710B5044618217F
:1014600000F077FB204610BDF8B50E46002400F1D1
:101470000807051D17F8011D0A223046FFF73BFC3F
:10148000AF42044401D12046F8BD002CF2D02E21F9
:101490003046FFF72DFC0444ECE7000010B504468D
:1014A000044B1122002140F8043B01F085FE204648
:1014B00010BD00BFC0320A080346074A10B543F802
:1014C000042B01F1100251F8044B914243F8044BF4
:1014D000F9D10A781A7010BDC0320A08024AC0E970
:1014E0000021042202757047C0320A0810B59DF829
:1014F000084044EA0324042344EA024444EA016421
:101500004460037510BD000037B5044D05609DF8BB
:1015100018500095FFF7EAFF03B030BDC0320A084B
:1015200041747047704708B50021007CFFF782F9CD
:1015300040EAE07008BD08B50121007CFFF77AF9A8
:1015400040EAE07008BD08B5007CFFF76BF920EABF
:10155000E07008BD08B5007CFFF75CF920EAE07098
:1015600008BD38B50446007C0D46FFF75BF900283E
:1015700001DC607C28B12946207CFFF763F920EA72
:10158000E07038BD007CFFF765B910B50446142142
:1015900000F0DFFA204610BD10B54FF47A73044610
:1015A00008460021C4E90113044B20742360012381
:1015B00011466374FFF726F9204610BDD4320A089D
:1015C00010B504461422002101F0F6FD054B20461B
:1015D0006360054BE36040F2011323818123238282
:1015E00010BD00BFF0000020F101002030B50F4D0C
:1015F00087B001A8FFF7E4FF2978BFF35B8F11F0F4
:10160000010410D12846FEF74EFD60B1214601AA23
:101610000748FFF7C1FF2846FEF74AFD054A06497D
:10162000034800F091FA024807B030BDC000002026
:10163000C80000206C00002025150A0810B50446DB
:101640001422002101F0B8FD054B20466360054BD4
:10165000E36040F2011323818123238210BD00BF88
:10166000720200207303002010B50F4C86B001A851
:10167000FFF7E4FF2378BFF35B8FDB0710D420462E
:10168000FEF711FD60B1012101AA0848FFF784FFB0
:101690002046FEF70DFD064A0649044800F054FABC
:1016A000024806B010BD00BFC4000020DC000020CE
:1016B0006C00002025150A08FEF7EABFFEF7E0BF20
:1016C00070474174704708B5007CFFF749F820EA7D
:1016D000E07008BD08B5007CFFF71AF820EAE0705A
:1016E00008BD08B5007CFFF723F840EAE07008BDAC
:1016F00008B5007CFFF714F840EAE07008BD007CF4
:10170000FFF71EB870B5467C04460D462EB129463B
:10171000207CBDE87040FEF7F3BF007CFFF720F8A7
:101720000028F4DC304670BD10B50446142100F0EA
:1017300010FA204610BD00004FF0000C10B5044612
:10174000084611464FF47A72C4E901C2044A207473
:101750002260012262741A46FEF7CAFF204610BDBD
:1017600004330A0838B50D4D2978BFF35B8F11F0AB
:10177000010411D12846FEF796FC68B12146084ABB
:10178000084B0948FFF7D8FF2846FEF791FC074AA7
:101790000749054800F0D8F9034838BDF403002094
:1017A000F80300207C040020000500206C000020CD
:1017B000C1160A0810B5836804460BB900F0CDF9CC
:1017C000C3689847A3681BB1032221462046984767
:1017D0002046BDE81040102100F0BBB97047F8B5B5
:1017E000064615460C468F18BC4206D03368304674
:1017F0009B6814F8011B9847F6E72846F8BD0022BD
:10180000007CFEF7B5BF0021007CFEF7B9BF0021C8
:10181000007CFEF7BDBF0021007CFEF7C1BF0021A8
:10182000007CFEF7C5BF10B50446142100F091F905
:10183000204610BD10B54FF47A73044608460021C7
:10184000C4E90113034B114623602074FEF7C0FF67
:10185000204610BD34330A08002240681146FFF7C5
:1018600055B8F0B5154689B011220E460446002140
:1018700003A801F0A1FC284601F0E5FC002781B295
:1018800073682846009703AAFEF7ECFF30B139468B
:101890002046FFF723FE204609B0F0BD204603A9ED
:1018A000FFF70AFEF7E7002240681146FFF74EB83F
:1018B000002240681146FFF759B800224068FFF740
:1018C0004DB80022406881F00101FFF737B80023CE
:1018D00040681A461946FFF729B8002240681146A9
:1018E000FFF704B8002202214068FFF707B8002381
:1018F00040681A46FEF7F2BF0422024B5A60024AC1
:101900001A607047140500205C330A080023406801
:101910001A46FEF7E3BF002202214068FEF7EEBF41
:10192000002240681146FEF7E1BF002240681146E0
:10193000FEF7ECBF002340681A461946FEF7EEBFDB
:10194000002340681A461946FEF7F0BF002240689F
:1019500081F00101FEF7F2BF00224068FEF7FEBFF2
:10196000002240681146FFF701B800224068114686
:10197000FEF7ECBF70B515468EB0044608A8FFF719
:101980008DFD1122002103A801F016FC0026284637
:1019900001F059FC0A4B009681B25B68284603AA05
:1019A000FEF760FF30B131462046FFF797FD204635
:1019B0000EB070BD204603A9FFF77EFDF7E700BF1C
:1019C00014050020024B034A1A6000225A60704737
:1019D0001C05002090330A0810B50446806808B141
:1019E000FEF77EFE204610BD172870B5044601D9CB
:1019F000002070BDA0F10D03022B0BD9012826D8C1
:101A000000F07AF80021007CFEF7DAFE80F0010099
:101A1000C0B2EEE7134E3178BFF35B8F11F00105D2
:101A20000FD13046FEF73FFB58B129460E48FEF76E
:101A3000F5FF3046FEF73CFB0C4A0D490A4800F022
:101A400083F8094B1878FEF7D5FE0028D0D1123C58
:101A5000012C05D8FFF786FE007CFEF779FED5E75E
:101A60000120C6E724050020280500206C00002086
:101A7000D9190A08172838B504460D460AD8FF298F
:101A800008D0FFF7B1FF28B129462046BDE838400D
:101A9000FEF7EEBD38BD0000002313B5074C1A4613
:101AA000194620460093FFF72FFD2046044A0549BA
:101AB00002B0BDE8104000F047B800BF3805002074
:101AC0006C00002059140A08002370B520254380BB
:101AD0001423084E0446038031468560056128467C
:101AE00000F039F831466060284600F034F8E060D4
:101AF000204670BDBC330A0830B50F4D87B0297839
:101B0000BFF35B8F11F0010413D12846FEF7CBFA27
:101B100078B101A8FFF7D8FF214601AA0748FFF7CF
:101B200089FE2846FEF7C4FA054A0649034800F034
:101B30000BF8024807B030BD5005002054050020C6
:101B40006C000020DD170A080B460146184601F01C
:101B500017BBFEF7A6BAFEF7A2BA08B5FEF73EFF1E
:101B600070B58AB0044600F079F8374B054693F912
:101B70000060731C33D02146204601F051F9002843
:101B80002DD10021204601F041F9034638BB2F4AF0
:101B900020460893019200F00DFBCDE90401CDE948
:101BA0000201FEB100222A4B20460021CDE9062386
:101BB00001F004F900283DD002239E42009333D166
:101BC000FEF71CFF22230360089B1BB3FEF716FFE2
:101BD000089B0360DDE9060100F0FEFD054628468E
:101BE0000AB070BD4FF060421A4B20460021CDE98B
:101BF000062301F0E3F8A8B901230093684600F03A
:101C00006DF9D8B1144800F06BF9CDE90601089BD5
:101C1000002BDBD1DDE9060100F0DEFD054628469C
:101C20000AB070BD02230093684600F057F90028FF
:101C3000EDD1C5E70123022E0093DFD1FEF7DEFED2
:101C400021230360DEE700BF04000020C0330A0840
:101C50000000F0FFFFFFEFC7C4330A0830F0004276
:101C60002DE9F0472BD000280146034640DBB0F1B8
:101C7000FF4F39DAB0F5000F41DB00218A4AC3F388
:101C800016063244DC1502F400007F3C80F07E50E2
:101C90000C4430434FF07E5104EBD25400F0F0FD81
:101CA000824B06F10F021340054683BB002101F071
:101CB00085F8002800F0A28044B9002004E000214B
:101CC0004FF04C4000F09AFFBDE8F087204600F04E
:101CD0008DFE7749054600F0DDFE7649044628462C
:101CE00000F0D8FE0146204600F0CCFDBDE8F087AC
:101CF00000F0C6FD002100F081FFBDE8F0874FF045
:101D0000984100F0C7FE6FF018010346B6E74FF0A8
:101D1000804100F0B7FD0146284600F06FFF804685
:101D2000204600F063FE41468146404600F0B2FE88
:101D30000146824600F0AEFE07465F4900F0AAFE6B
:101D40005E4900F09FFD394600F0A4FE5C4900F0BA
:101D500099FD394600F09EFE5A4900F093FD514628
:101D600000F098FE58498246384600F093FE5749E5
:101D700000F088FD394600F08DFE554900F082FDE7
:101D8000394600F087FE0146504600F07BFD514A7F
:101D9000C6F55713324403F522731343002B06464E
:101DA0004FDD4FF07C51284600F074FE294600F0CC
:101DB00071FE0746002C51D03D49484600F06AFEAE
:101DC00039460446304600F05DFD414600F062FEB3
:101DD00038490646484600F05DFE0146304600F0B0
:101DE00051FD0146384600F04BFD294600F048FD04
:101DF0000146204600F044FDBDE8F08736492846FC
:101E000000F048FE01464FF07C5000F039FD2946B5
:101E10000646284600F03EFE0146304600F03AFEF7
:101E200006465CB3204600F0E1FD2149074600F07C
:101E300031FE044638461F4900F02CFE014630466C
:101E4000D1E704BB0146284600F01AFD414600F0E8
:101E500021FE0146284600F013FD35E7394630469D
:101E600000F010FD414600F015FE0146384600F036
:101E700007FD0146284600F003FD25E701462846F8
:101E800000F0FEFC20E70A49484600F003FE314618
:101E90000446284600F0F4FC414600F0FBFD0549ED
:101EA00006464846C8E700BF20FB4A00F0FF7F0017
:101EB0008071313FD1F717379788173E25333A3E67
:101EC0002549923EABAA2A3F4FD01C3E298E633E45
:101ED000CDCCCC3E305CCFFFABAAAA3E00207047F1
:101EE00000200149704700BF0000F87F81F00041E9
:101EF00002E000BF83F0004330B54FEA41044FEAEF
:101F0000430594EA050F08BF90EA020F1FBF54EA89
:101F1000000C55EA020C7FEA645C7FEA655C00F025
:101F2000E2804FEA5454D4EB5555B8BF6D420CDDF6
:101F30002C4480EA020281EA030382EA000083EA79
:101F4000010180EA020281EA0303362D88BF30BD19
:101F500011F0004F4FEA01314FF4801C4CEA11316F
:101F600002D0404261EB410113F0004F4FEA0333CE
:101F70004CEA133302D0524263EB430394EA050F59
:101F800000F0A780A4F10104D5F1200E0DDB02FAC8
:101F90000EFC22FA05F2801841F1000103FA0EF25C
:101FA000801843FA05F359410EE0A5F120050EF122
:101FB000200E012A03FA0EFC28BF4CF0020C43FA53
:101FC00005F3C01851EBE37101F0004507D54FF060
:101FD000000EDCF1000C7EEB00006EEB0101B1F5B0
:101FE000801F1BD3B1F5001F0CD349085FEA3000F6
:101FF0004FEA3C0C04F101044FEA445212F5800F01
:1020000080F09A80BCF1004F08BF5FEA500C50F19D
:10201000000041EB045141EA050130BD5FEA4C0C80
:10202000404141EB0101013C28BFB1F5801FE9D2DD
:1020300091F0000F04BF01460020B1FA81F308BF00
:102040002033A3F10B03B3F120020CDA0C3208DDCC
:1020500002F1140CC2F10C0201FA0CF021FA02F1A7
:102060000CE002F11402D8BFC2F1200C01FA02F117
:1020700020FA0CFCDCBF41EA0C019040E41AA2BF3C
:1020800001EB0451294330BD6FEA04041F3C1CDA04
:102090000C340EDC04F11404C4F1200220FA04F024
:1020A00001FA02F340EA030021FA04F345EA0301CE
:1020B00030BDC4F10C04C4F1200220FA02F001FA90
:1020C00004F340EA0300294630BD21FA04F0294612
:1020D00030BD94F0000F83F4801306BF81F48011AB
:1020E0000134013D4EE77FEA645C18BF7FEA655C1E
:1020F00029D094EA050F08BF90EA020F05D054EAF0
:10210000000C04BF1946104630BD91EA030F1EBFF4
:102110000021002030BD5FEA545C05D140004941F8
:1021200028BF41F0004130BD14F580043CBF01F5EB
:10213000801130BD01F0004545F0FE4141F47001D1
:102140004FF0000030BD7FEA645C1ABF19461046AC
:102150007FEA655C1CBF0B46024650EA013406BFAD
:1021600052EA033591EA030F41F4002130BD00BF6C
:1021700090F0000F04BF0021704730B54FF4806429
:1021800004F132044FF000054FF0000150E700BFAA
:1021900090F0000F04BF0021704730B54FF4806409
:1021A00004F1320410F0004548BF40424FF00001F6
:1021B0003EE700BF42004FEAE2014FEA31014FEA39
:1021C00002701FBF12F07F4393F07F4F81F0605188
:1021D000704732F07F4208BF704793F07F4F04BFD3
:1021E00041F40021704730B54FF4607401F00045B0
:1021F00021F000411CE700BF50EA010208BF704710
:1022000030B54FF000050AE050EA010208BF704700
:1022100030B511F0004502D5404261EB41014FF469
:10222000806404F132045FEA915C3FF4D8AE4FF071
:1022300003025FEADC0C18BF03325FEADC0C18BF54
:10224000033202EBDC02C2F1200300FA03FC20FAA5
:1022500002F001FA03FE40EA0E0021FA02F11444F2
:10226000BDE600BF70B54FF0FF0C4CF4E06C1CEA0B
:1022700011541DBF1CEA135594EA0C0F95EA0C0F7C
:1022800000F0DEF82C4481EA030621EA4C5123EAEF
:102290004C5350EA013518BF52EA033541F480111E
:1022A00043F4801338D0A0FB02CE4FF00005E1FBD1
:1022B00002E506F00042E0FB03E54FF00006E1FB1B
:1022C00003569CF0000F18BF4EF0010EA4F1FF045E
:1022D000B6F5007F64F5407404D25FEA4E0E6D419E
:1022E00046EB060642EAC62141EA55514FEAC520AF
:1022F00040EA5E504FEACE2EB4F1FD0C88BFBCF52B
:10230000E06F1ED8BEF1004F08BF5FEA500E50F1DB
:10231000000041EB045170BD06F0004646EA0101A1
:1023200040EA020081EA0301B4EB5C04C2BFD4EBD3
:102330000C0541EA045170BD41F480114FF0000ECC
:10234000013C00F3AB8014F1360FDEBF002001F03A
:10235000004170BDC4F10004203C35DA0C341BDCB4
:1023600004F11404C4F1200500FA05F320FA04F086
:1023700001FA05F240EA020001F0004221F00041BA
:1023800010EBD37021FA04F642EB06015EEA430E2D
:1023900008BF20EAD37070BDC4F10C04C4F120055D
:1023A00000FA04F320FA05F001FA04F240EA020010
:1023B00001F0004110EBD37041F100015EEA430EE1
:1023C00008BF20EAD37070BDC4F1200500FA05F201
:1023D0004EEA020E20FA04F301FA05F243EA020380
:1023E00021FA04F001F0004121FA04F220EA02008F
:1023F00000EBD3705EEA430E08BF20EAD37070BDD5
:1024000094F0000F0FD101F00046400041EB0101B4
:1024100011F4801F08BF013CF7D041EA060195F096
:10242000000F18BF704703F00046520043EB030350
:1024300013F4801F08BF013DF7D043EA060370473D
:1024400094EA0C0F0CEA135518BF95EA0C0F0CD048
:1024500050EA410618BF52EA4306D1D181EA03018E
:1024600001F000414FF0000070BD50EA410606BF88
:102470001046194652EA430619D094EA0C0F02D1CD
:1024800050EA013613D195EA0C0F05D152EA033612
:102490001CBF104619460AD181EA030101F0004130
:1024A00041F0FE4141F470014FF0000070BD41F079
:1024B000FE4141F4780170BD70B54FF0FF0C4CF453
:1024C000E06C1CEA11541DBF1CEA135594EA0C0F72
:1024D00095EA0C0F00F0A7F8A4EB050481EA030EBF
:1024E00052EA03354FEA013100F088804FEA0333A6
:1024F0004FF0805545EA131343EA12634FEA022274
:1025000045EA111545EA10654FEA00260EF0004134
:102510009D4208BF964244F1FD0404F5407402D286
:102520005B084FEA3202B61A65EB03055B084FEA17
:1025300032024FF480104FF4002CB6EB020E75EB14
:10254000030E22BFB61A754640EA0C005B084FEA3C
:102550003202B6EB020E75EB030E22BFB61A7546B9
:1025600040EA5C005B084FEA3202B6EB020E75EB04
:10257000030E22BFB61A754640EA9C005B084FEA7C
:102580003202B6EB020E75EB030E22BFB61A754689
:1025900040EADC0055EA060E18D04FEA051545EA78
:1025A00016754FEA06164FEAC30343EA52734FEA21
:1025B000C2025FEA1C1CC0D111F4801F0BD141EA9A
:1025C00000014FF000004FF0004CB6E711F4801FFF
:1025D00004BF01430020B4F1FD0C88BFBCF5E06FDF
:1025E0003FF6AFAEB5EB030C04BFB6EB020C5FEAEF
:1025F000500C50F1000041EB045170BD0EF0004E44
:102600004EEA113114EB5C04C2BFD4EB0C0541EA75
:10261000045170BD41F480114FF0000E013C90E672
:1026200045EA060E8DE60CEA135594EA0C0F08BF36
:1026300095EA0C0F3FF43BAF94EA0C0F0AD150EA35
:1026400001347FF434AF95EA0C0F7FF425AF1046C8
:1026500019462CE795EA0C0F06D152EA03353FF4F0
:10266000FDAE1046194622E750EA410618BF52EA6D
:1026700043067FF4C5AE50EA41047FF40DAF52EA41
:1026800043057FF4EBAE12E74FF0FF3C06E000BFDE
:102690004FF0010C02E000BF4FF0010C4DF804CDEB
:1026A0004FEA410C7FEA6C5C4FEA430C18BF7FEAAB
:1026B0006C5C1BD001B050EA410C0CBF52EA430CD9
:1026C00091EA030F02BF90EA020F0020704710F159
:1026D000000F91EA030F58BF994208BF90422CBFE8
:1026E000D8176FEAE37040F0010070474FEA410CE1
:1026F0007FEA6C5C02D150EA013C07D14FEA430CFF
:102700007FEA6C5CD6D152EA033CD3D05DF8040B6F
:10271000704700BF8446104662468C4619466346A1
:1027200000E000BF01B5FFF7B7FF002848BF10F178
:10273000000F01BD4DF808EDFFF7F4FF0CBF0120BD
:1027400000205DF808FB00BF4DF808EDFFF7EAFF39
:1027500034BF012000205DF808FB00BF4DF808EDF4
:10276000FFF7E0FF94BF012000205DF808FB00BFE9
:102770004DF808EDFFF7CEFF94BF012000205DF873
:1027800008FB00BF4DF808EDFFF7C4FF34BF012080
:1027900000205DF808FB00BF4A0011D212F50012BC
:1027A00011D20DD56FF47873B3EB62520ED44FEAA9
:1027B000C12343F0004343EA505323FA02F0704729
:1027C0004FF00000704750EA013002D14FF0FF3067
:1027D00070474FF0000070474FEA4102B2F1E0430A
:1027E00024BFB3F5001CDCF1FE5C0DD901F0004CF8
:1027F0004FEAC0024CEA5070B2F1004F40EB830048
:1028000008BF20F00100704711F0804F21D113F173
:102810003872BCBF01F00040704741F480114FEAAC
:102820005252C2F11802C2F1200C10FA0CF320FA35
:1028300002F018BF40F001004FEAC1234FEAD32352
:1028400003FA0CFC40EA0C0023FA02F34FEA4303BC
:10285000CCE77FEA625307D150EA01331EBF4FF045
:10286000FE4040F44000704701F0004040F0FE4060
:1028700040F40000704700BF80F0004002E000BF5D
:1028800081F0004142001FBF5FEA410392EA030F5B
:102890007FEA226C7FEA236C6AD04FEA1262D2EBA5
:1028A0001363C1BFD218414048404140B8BF5B42AA
:1028B000192B88BF704710F0004F40F4000020F043
:1028C0007F4018BF404211F0004F41F4000121F059
:1028D0007F4118BF494292EA030F3FD0A2F10102A3
:1028E00041FA03FC10EB0C00C3F1200301FA03F1E1
:1028F00000F0004302D5494260EB4000B0F5000F04
:1029000013D3B0F1807F06D340084FEA310102F1C2
:102910000102FE2A51D2B1F1004F40EBC25008BF74
:1029200020F0010040EA03007047490040EB00003E
:10293000013A28BFB0F5000FEDD2B0FA80FCACF13F
:10294000080CB2EB0C0200FA0CF0AABF00EBC2506C
:1029500052421843BCBFD0401843704792F0000F5A
:1029600081F4000106BF80F400000132013BB5E7AD
:102970004FEA41037FEA226C18BF7FEA236C21D023
:1029800092EA030F04D092F0000F08BF0846704788
:1029900090EA010F1CBF0020704712F07F4F04D156
:1029A000400028BF40F00040704712F100723CBF69
:1029B00000F50000704700F0004343F0FE4040F493
:1029C000000070477FEA226216BF08467FEA236351
:1029D0000146420206BF5FEA412390EA010F40F43C
:1029E000800070474FF0000304E000BF10F0004388
:1029F00048BF40425FEA000C08BF704743F096436F
:102A000001464FF000001CE050EA010208BF704789
:102A10004FF000030AE000BF50EA010208BF704710
:102A200011F0004302D5404261EB41015FEA010C25
:102A300002BF84460146002043F0B64308BFA3F11D
:102A40008053A3F50003BCFA8CF2083AA3EBC253FF
:102A500010DB01FA02FC634400FA02FCC2F120021E
:102A6000BCF1004F20FA02F243EB020008BF20F055
:102A70000100704702F1200201FA02FCC2F12002BB
:102A800050EA4C0021FA02F243EB020008BF20EAB0
:102A9000DC7070474FF0FF0C1CEAD0521EBF1CEADE
:102AA000D15392EA0C0F93EA0C0F6FD01A4480EACC
:102AB000010C400218BF5FEA41211ED04FF00063B5
:102AC00043EA501043EA5111A0FB01310CF00040E1
:102AD000B1F5000F3EBF490041EAD3715B0040EA07
:102AE000010062F17F02FD2A1DD8B3F1004F40EBD7
:102AF000C25008BF20F00100704790F0000F0CF0AA
:102B0000004C08BF49024CEA502040EA51207F3A6D
:102B1000C2BFD2F1FF0340EAC250704740F4000048
:102B20004FF00003013A5DDC12F1190FDCBF00F039
:102B300000407047C2F10002410021FA02F1C2F1E7
:102B4000200200FA02FC5FEA310040F1000053EA83
:102B50004C0308BF20EADC70704792F0000F00F0D1
:102B6000004C02BF400010F4000F013AF9D040EAD7
:102B70000C0093F0000F01F0004C02BF490011F46B
:102B8000000F013BF9D041EA0C018FE70CEAD15369
:102B900092EA0C0F18BF93EA0C0F0AD030F0004CE9
:102BA00018BF31F0004CD8D180EA010000F000409D
:102BB000704790F0000F17BF90F0004F084691F05B
:102BC000000F91F0004F14D092EA0C0F01D1420295
:102BD0000FD193EA0C0F03D14B0218BF084608D15E
:102BE00080EA010000F0004040F0FE4040F40000A8
:102BF000704740F0FE4040F4400070474FF0FF0C3B
:102C00001CEAD0521EBF1CEAD15392EA0C0F93EA81
:102C10000C0F69D0A2EB030280EA010C49024FEAD3
:102C2000402037D04FF0805343EA111143EA10138C
:102C30000CF000408B4238BF5B0042F17D024FF444
:102C4000000C8B4224BF5B1A40EA0C00B3EB510F1F
:102C500024BFA3EB510340EA5C00B3EB910F24BF08
:102C6000A3EB910340EA9C00B3EBD10F24BFA3EB8D
:102C7000D10340EADC001B0118BF5FEA1C1CE0D155
:102C8000FD2A3FF650AF8B4240EBC25008BF20F008
:102C9000010070470CF0004C4CEA50207F32C2BF5C
:102CA000D2F1FF0340EAC250704740F400004FF0F9
:102CB0000003013A37E792F0000F00F0004C02BF2A
:102CC000400010F4000F013AF9D040EA0C0093F0F4
:102CD000000F01F0004C02BF490011F4000F013B4E
:102CE000F9D041EA0C0195E70CEAD15392EA0C0FB6
:102CF00008D142027FF47DAF93EA0C0F7FF470AFEE
:102D0000084676E793EA0C0F04D14B023FF44CAF30
:102D100008466EE730F0004C18BF31F0004CCAD1C5
:102D200030F000427FF45CAF31F000437FF43CAF01
:102D30005FE700BF4FF0FF3C06E000BF4FF0010C23
:102D400002E000BF4FF0010C4DF804CD4FEA400205
:102D50004FEA41037FEA226C18BF7FEA236C11D04F
:102D600001B052EA530C18BF90EA010F58BFB2EB02
:102D7000030088BFC81738BF6FEAE17018BF40F082
:102D8000010070477FEA226C02D15FEA402C05D136
:102D90007FEA236CE4D15FEA412CE1D05DF8040BBB
:102DA000704700BF844608466146FFE70FB5FFF74E
:102DB000C9FF002848BF10F1000F0FBD4DF808ED06
:102DC000FFF7F4FF0CBF012000205DF808FB00BFF7
:102DD0004DF808EDFFF7EAFF34BF012000205DF851
:102DE00008FB00BF4DF808EDFFF7E0FF94BF01209E
:102DF00000205DF808FB00BF4DF808EDFFF7D2FF9B
:102E000094BF012000205DF808FB00BF4DF808EDDD
:102E1000FFF7C8FF34BF012000205DF808FB00BFAA
:102E20004FEA40024FEA41037FEA226C02D15FEA97
:102E3000402C08D17FEA236C02D15FEA412C02D1F9
:102E40004FF0000070474FF00100704753B94AB986
:102E5000002908BF00281CBF4FF0FF314FF0FF30A2
:102E600000F08CB9ADF1080C6DE904CE00F024F847
:102E7000DDF804E0DDE9022304B07047D0B500229C
:102E80000B4B06460F46FFF7EDF9FFF785FC0446AE
:102E9000FFF76EF90022074BFFF7E4F902460B46F5
:102EA00030463946FFF726F8FFF776FC2146D0BDBD
:102EB0000000F03D0000F0412DE9F047089E0D466E
:102EC00004468E46002B40F083808A42174647D93D
:102ED000B2FA82F34BB1C3F1200105FA03FE20FAE6
:102EE00001F19F4041EA0E0E9C404FEA1748BEFB9D
:102EF000F8FC1FFA87F908FB1CE20CFB09F0210C17
:102F000041EA024290420AD9BA180CF1FF3180F02E
:102F10001881904240F21581ACF1020C3A44121A29
:102F2000B2FBF8F008FB102200FB09F1A4B244EA5E
:102F30000244A14209D93C1900F1FF3280F003811B
:102F4000A14240F2008102383C44641A002140EA68
:102F50000C401EB10022DC40C6E90042BDE8F0870B
:102F600002B9FFDEB2FA82F3002B4FD18D1A012194
:102F70004FEA124E1FFA82F8B5FBFEFC0EFB1C5501
:102F800008FB0CF0220C42EA0545A84207D97D193E
:102F90000CF1FF3202D2A84200F2E98094462D1AC9
:102FA000B5FBFEF00EFB105508FB00F8A4B244EA96
:102FB0000544A04507D93C1900F1FF3202D2A045D3
:102FC00000F2D9801046A4EB080440EA0C40C0E7A8
:102FD0008B4208D9002E00F0B1800021C6E900051F
:102FE0000846BDE8F087B3FA83F100294BD1AB4224
:102FF00002D3824200F2B980841A65EB03030120F8
:103000009E46002EAAD0C6E9004EA7E79F40C3F116
:103010002002D1404FEA174EB1FBFEF01FFA87F8AD
:103020000EFB101124FA02F29D4000FB08FC2A431B
:10303000150C45EA0145AC4504FA03F409D97D199C
:1030400000F1FF3180F08F80AC4540F28C80023877
:103050003D44A5EB0C05B5FBFEF10EFB115C01FB3D
:1030600008F995B245EA0C45A94507D97D1901F142
:10307000FF3274D2A94572D902393D44A5EB090546
:1030800041EA004178E7C1F120078B4022FA07FCB2
:103090004CEA030C25FA07F44FEA1C4EB4FBFEF988
:1030A0001FFA8CF80EFB194420FA07F309FB08FA03
:1030B0008D401D432B0C43EA0444A24502FA01F261
:1030C00000FA01F309D91CEB040409F1FF3048D2DE
:1030D000A24546D9A9F102096444A4EB0A04B4FB51
:1030E000FEF00EFB104400FB08FAADB245EA0444C2
:1030F000A24508D91CEB040400F1FF352DD2A245EE
:103100002BD90238644440EA0940A0FB0289A4EBB1
:103110000A044C45C6464D4619D316D05EB1B3EBF2
:103120000E0264EB050404FA07F722FA01F31F43C9
:10313000CC40C6E900740021BDE8F0873146304636
:103140000CE78C46EBE61046FFE64345E6D2B8EBCB
:10315000020E69EB0C050138E0E72846D3E711467B
:103160008CE78146B9E7084673E7084649E7ACF1C2
:10317000020C3D4413E702383C4424E7704700BF8B
:1031800010B504460448134620B10A4602202146E1
:10319000AFF3008010BD00BF000000000A44914260
:1031A00000F1FF3300D1704710B511F8014B914287
:1031B00003F8014FF9D110BD03460244934200D1F8
:1031C000704703F8011BF9E738B50D4B04461D683D
:1031D000AB6B7BB91820FDF7E9FB0A4A0A4BA863E1
:1031E000C0E90023094B012283600B238381002364
:1031F000C0E904230022AB6B1C615A6138BD00BFDB
:10320000080000200E33CDAB34126DE6ECDE050075
:10321000024B0146186800F003B800BF0800002008
:1032200070B5044608460D4600F00DF8461C3146C0
:103230002046FDF7DBFB044618B132462946FFF76E
:10324000ADFF204670BD034613F8012B002AFBD1C9
:10325000181A01387047000021000A0861000A08A6
:1032600089000A088D000A080000000074656D706E
:103270000068756D69646974790061707000255922
:103280002D256D2D25645425483A254D3A25532585
:103290007A0061736374696D6500000000000000CE
:1032A00000000000210F0A08270F0A08650F0A080E
:1032B000350F0A08230F0A08000000000000000074
:1032C00069140A0859140A085B140A08000000006F
:1032D0000000000025150A088B150A0863150A0866
:1032E000A50C0A0855150A0827150A0837150A08F3
:1032F00085150A0847150A0821150A08000000006C
:1033000000000000C1160A0829170A0805170A0854
:10331000A50C0A08D5160A08F1160A08E3160A08C9
:10332000FF160A08C3160A08C7160A08000000009C
:1033300000000000DD170A0827180A08FF170A080E
:10334000DF170A0807180A080F180A0817180A08CA
:103350001F180A080000000000000000EF180A080B
:10336000E5180A08DB180A0859180A08310D0A0876
:10337000CF180A08C3180A08BB180A08B1180A08A7
:10338000A7180A0863180A080000000000000000DF
:103390000D190A0817190A0821190A082B190A0811
:1033A00035190A0841190A084D190A0859190A0855
:1033B00061190A086B190A0875190A08000000004B
:1033C0006C6F67660000000089010A08590A0A0844
:1033D0004D0D0A085D0D0A08B90D0A08F9180A080A
:1033E000C5190A08991A0A08000000000000000028
:0833F000C8FAFF7F0100000094
:0433F80000000000D1
:1033FC0092320A08010000000C00002000000000BE
:10340C0000000000000000000000000000000000B0
:10341C0000000000000000000000000000000000A0
:10342C000000000000000000000000000000000090
:10343C000000000000000000000000000000000080
:10344C000000000000000000000000000000000070
:0C345C0000000000000000000000000064
:10346800FFFFFFFF00000102030405060708090A21
:103478000B0C0D0E0F101112131415161718191A1C
:083488001B1C1D1E1F20280063
:043490007856341224
:04000005080A0020C5
:00000001FF
